{
  "contractName": "IFT",
  "abi": [
    {
      "inputs": [],
      "payable": false,
      "stateMutability": "nonpayable",
      "type": "constructor"
    },
    {
      "anonymous": false,
      "inputs": [
        {
          "indexed": true,
          "internalType": "address",
          "name": "tokenOwner",
          "type": "address"
        },
        {
          "indexed": true,
          "internalType": "address",
          "name": "spender",
          "type": "address"
        },
        {
          "indexed": false,
          "internalType": "uint256",
          "name": "tokens",
          "type": "uint256"
        },
        {
          "indexed": false,
          "internalType": "uint16",
          "name": "_birthday",
          "type": "uint16"
        }
      ],
      "name": "Approval",
      "type": "event"
    },
    {
      "anonymous": false,
      "inputs": [
        {
          "indexed": true,
          "internalType": "address",
          "name": "_from",
          "type": "address"
        },
        {
          "indexed": true,
          "internalType": "address",
          "name": "_to",
          "type": "address"
        }
      ],
      "name": "OwnershipTransferred",
      "type": "event"
    },
    {
      "anonymous": false,
      "inputs": [
        {
          "indexed": false,
          "internalType": "address",
          "name": "",
          "type": "address"
        },
        {
          "indexed": false,
          "internalType": "uint256",
          "name": "",
          "type": "uint256"
        },
        {
          "indexed": false,
          "internalType": "uint16",
          "name": "",
          "type": "uint16"
        }
      ],
      "name": "Received",
      "type": "event"
    },
    {
      "anonymous": false,
      "inputs": [
        {
          "indexed": true,
          "internalType": "address",
          "name": "from",
          "type": "address"
        },
        {
          "indexed": true,
          "internalType": "address",
          "name": "to",
          "type": "address"
        },
        {
          "indexed": false,
          "internalType": "uint256",
          "name": "tokens",
          "type": "uint256"
        },
        {
          "indexed": false,
          "internalType": "uint16",
          "name": "_birthday",
          "type": "uint16"
        }
      ],
      "name": "Transfer",
      "type": "event"
    },
    {
      "anonymous": false,
      "inputs": [
        {
          "indexed": false,
          "internalType": "int32",
          "name": "",
          "type": "int32"
        }
      ],
      "name": "UpdateIndex",
      "type": "event"
    },
    {
      "anonymous": false,
      "inputs": [
        {
          "indexed": false,
          "internalType": "address",
          "name": "",
          "type": "address"
        },
        {
          "indexed": false,
          "internalType": "uint256",
          "name": "",
          "type": "uint256"
        }
      ],
      "name": "Withdraw",
      "type": "event"
    },
    {
      "payable": true,
      "stateMutability": "payable",
      "type": "fallback"
    },
    {
      "constant": true,
      "inputs": [
        {
          "internalType": "uint16",
          "name": "",
          "type": "uint16"
        }
      ],
      "name": "_totalSupply",
      "outputs": [
        {
          "internalType": "uint256",
          "name": "",
          "type": "uint256"
        }
      ],
      "payable": false,
      "stateMutability": "view",
      "type": "function"
    },
    {
      "constant": false,
      "inputs": [],
      "name": "acceptOwnership",
      "outputs": [],
      "payable": false,
      "stateMutability": "nonpayable",
      "type": "function"
    },
    {
      "constant": true,
      "inputs": [
        {
          "internalType": "address",
          "name": "tokenOwner",
          "type": "address"
        },
        {
          "internalType": "address",
          "name": "spender",
          "type": "address"
        },
        {
          "internalType": "uint16",
          "name": "_birthday",
          "type": "uint16"
        }
      ],
      "name": "allowance",
      "outputs": [
        {
          "internalType": "uint256",
          "name": "remaining",
          "type": "uint256"
        }
      ],
      "payable": false,
      "stateMutability": "view",
      "type": "function"
    },
    {
      "constant": false,
      "inputs": [
        {
          "internalType": "address",
          "name": "spender",
          "type": "address"
        },
        {
          "internalType": "uint256",
          "name": "tokens",
          "type": "uint256"
        },
        {
          "internalType": "uint16",
          "name": "_birthday",
          "type": "uint16"
        }
      ],
      "name": "approve",
      "outputs": [
        {
          "internalType": "bool",
          "name": "success",
          "type": "bool"
        }
      ],
      "payable": false,
      "stateMutability": "nonpayable",
      "type": "function"
    },
    {
      "constant": false,
      "inputs": [
        {
          "internalType": "address",
          "name": "spender",
          "type": "address"
        },
        {
          "internalType": "uint256",
          "name": "tokens",
          "type": "uint256"
        },
        {
          "internalType": "bytes",
          "name": "data",
          "type": "bytes"
        },
        {
          "internalType": "uint16",
          "name": "_birthday",
          "type": "uint16"
        }
      ],
      "name": "approveAndCall",
      "outputs": [
        {
          "internalType": "bool",
          "name": "success",
          "type": "bool"
        }
      ],
      "payable": false,
      "stateMutability": "nonpayable",
      "type": "function"
    },
    {
      "constant": true,
      "inputs": [
        {
          "internalType": "address",
          "name": "tokenOwner",
          "type": "address"
        },
        {
          "internalType": "uint16",
          "name": "_birthday",
          "type": "uint16"
        }
      ],
      "name": "balanceOf",
      "outputs": [
        {
          "internalType": "uint256",
          "name": "balance",
          "type": "uint256"
        }
      ],
      "payable": false,
      "stateMutability": "view",
      "type": "function"
    },
    {
      "constant": true,
      "inputs": [
        {
          "internalType": "uint16",
          "name": "",
          "type": "uint16"
        }
      ],
      "name": "bounds",
      "outputs": [
        {
          "internalType": "int32",
          "name": "preIndex",
          "type": "int32"
        },
        {
          "internalType": "int32",
          "name": "posIndex",
          "type": "int32"
        },
        {
          "internalType": "uint256",
          "name": "nextPreIndexUpdate",
          "type": "uint256"
        },
        {
          "internalType": "uint256",
          "name": "nextPosIndexUpdate",
          "type": "uint256"
        }
      ],
      "payable": false,
      "stateMutability": "view",
      "type": "function"
    },
    {
      "constant": true,
      "inputs": [],
      "name": "currentMonth",
      "outputs": [
        {
          "internalType": "uint16",
          "name": "",
          "type": "uint16"
        }
      ],
      "payable": false,
      "stateMutability": "view",
      "type": "function"
    },
    {
      "constant": true,
      "inputs": [],
      "name": "decimals",
      "outputs": [
        {
          "internalType": "uint8",
          "name": "",
          "type": "uint8"
        }
      ],
      "payable": false,
      "stateMutability": "view",
      "type": "function"
    },
    {
      "constant": true,
      "inputs": [],
      "name": "lastBoundEmition",
      "outputs": [
        {
          "internalType": "uint256",
          "name": "",
          "type": "uint256"
        }
      ],
      "payable": false,
      "stateMutability": "view",
      "type": "function"
    },
    {
      "constant": true,
      "inputs": [],
      "name": "name",
      "outputs": [
        {
          "internalType": "string",
          "name": "",
          "type": "string"
        }
      ],
      "payable": false,
      "stateMutability": "view",
      "type": "function"
    },
    {
      "constant": true,
      "inputs": [],
      "name": "newOwner",
      "outputs": [
        {
          "internalType": "address",
          "name": "",
          "type": "address"
        }
      ],
      "payable": false,
      "stateMutability": "view",
      "type": "function"
    },
    {
      "constant": true,
      "inputs": [],
      "name": "owner",
      "outputs": [
        {
          "internalType": "address",
          "name": "",
          "type": "address"
        }
      ],
      "payable": false,
      "stateMutability": "view",
      "type": "function"
    },
    {
      "constant": true,
      "inputs": [],
      "name": "symbol",
      "outputs": [
        {
          "internalType": "string",
          "name": "",
          "type": "string"
        }
      ],
      "payable": false,
      "stateMutability": "view",
      "type": "function"
    },
    {
      "constant": true,
      "inputs": [
        {
          "internalType": "uint16",
          "name": "_birthday",
          "type": "uint16"
        }
      ],
      "name": "totalSupply",
      "outputs": [
        {
          "internalType": "uint256",
          "name": "",
          "type": "uint256"
        }
      ],
      "payable": false,
      "stateMutability": "view",
      "type": "function"
    },
    {
      "constant": false,
      "inputs": [
        {
          "internalType": "address",
          "name": "from",
          "type": "address"
        },
        {
          "internalType": "address",
          "name": "to",
          "type": "address"
        },
        {
          "internalType": "uint256",
          "name": "tokens",
          "type": "uint256"
        },
        {
          "internalType": "uint16",
          "name": "_birthday",
          "type": "uint16"
        }
      ],
      "name": "transferFrom",
      "outputs": [
        {
          "internalType": "bool",
          "name": "success",
          "type": "bool"
        }
      ],
      "payable": false,
      "stateMutability": "nonpayable",
      "type": "function"
    },
    {
      "constant": false,
      "inputs": [
        {
          "internalType": "address",
          "name": "_newOwner",
          "type": "address"
        }
      ],
      "name": "transferOwnership",
      "outputs": [],
      "payable": false,
      "stateMutability": "nonpayable",
      "type": "function"
    },
    {
      "constant": false,
      "inputs": [
        {
          "internalType": "int32",
          "name": "_preIndex",
          "type": "int32"
        }
      ],
      "name": "createBound",
      "outputs": [],
      "payable": false,
      "stateMutability": "nonpayable",
      "type": "function"
    },
    {
      "constant": false,
      "inputs": [
        {
          "internalType": "int32",
          "name": "_newPreIndex",
          "type": "int32"
        },
        {
          "internalType": "uint16",
          "name": "_birthday",
          "type": "uint16"
        }
      ],
      "name": "updatePreIndex",
      "outputs": [],
      "payable": false,
      "stateMutability": "nonpayable",
      "type": "function"
    },
    {
      "constant": false,
      "inputs": [
        {
          "internalType": "int32",
          "name": "_newPosIndex",
          "type": "int32"
        },
        {
          "internalType": "uint16",
          "name": "_birthday",
          "type": "uint16"
        }
      ],
      "name": "updatePosIndex",
      "outputs": [],
      "payable": false,
      "stateMutability": "nonpayable",
      "type": "function"
    },
    {
      "constant": true,
      "inputs": [
        {
          "internalType": "uint256",
          "name": "_tokens",
          "type": "uint256"
        },
        {
          "internalType": "uint16",
          "name": "_birthday",
          "type": "uint16"
        }
      ],
      "name": "estimateProfit",
      "outputs": [
        {
          "internalType": "uint256",
          "name": "pos",
          "type": "uint256"
        },
        {
          "internalType": "uint256",
          "name": "pre",
          "type": "uint256"
        }
      ],
      "payable": false,
      "stateMutability": "view",
      "type": "function"
    },
    {
      "constant": false,
      "inputs": [
        {
          "internalType": "uint256",
          "name": "_tokens",
          "type": "uint256"
        },
        {
          "internalType": "uint16",
          "name": "_birthday",
          "type": "uint16"
        }
      ],
      "name": "clientWithdraw",
      "outputs": [
        {
          "internalType": "bool",
          "name": "success",
          "type": "bool"
        }
      ],
      "payable": false,
      "stateMutability": "nonpayable",
      "type": "function"
    },
    {
      "constant": false,
      "inputs": [
        {
          "internalType": "address",
          "name": "_to",
          "type": "address"
        },
        {
          "internalType": "uint256",
          "name": "_tokens",
          "type": "uint256"
        },
        {
          "internalType": "uint16",
          "name": "_birthday",
          "type": "uint16"
        }
      ],
      "name": "transfer",
      "outputs": [
        {
          "internalType": "bool",
          "name": "success",
          "type": "bool"
        }
      ],
      "payable": false,
      "stateMutability": "nonpayable",
      "type": "function"
    },
    {
      "constant": false,
      "inputs": [
        {
          "internalType": "uint256",
          "name": "_amount",
          "type": "uint256"
        }
      ],
      "name": "ownerWithdrawEth",
      "outputs": [],
      "payable": false,
      "stateMutability": "nonpayable",
      "type": "function"
    }
  ],
  "bytecode": "0x60806040523480156200001157600080fd5b50600080546001600160a01b0319163317905560408051808201909152600580825264119256115160da1b602090920191825262000052916002916200015e565b5060408051808201909152601a8082527f4578616d706c6520466978656420537570706c7920546f6b656e000000000000602090920191825262000099916003916200015e565b506004805460ff191660121790556040805180820190915260038082526212519560ea1b6020909201918252620000d3916002916200015e565b506040805180820190915260118082527024b73b32b9ba10233ab732102a37b5b2b760791b60209092019182526200010e916003916200015e565b506004805460ff191660121790556008805461ffff191690556000600955612710600c55600a80546001600160a01b031916732c5942155ab700c747664a7dc3906d24311e1bc517905562000203565b828054600181600116156101000203166002900490600052602060002090601f016020900481019282601f10620001a157805160ff1916838001178555620001d1565b82800160010185558215620001d1579182015b82811115620001d1578251825591602001919060010190620001b4565b50620001df929150620001e3565b5090565b6200020091905b80821115620001df5760008155600101620001ea565b90565b61147a80620002136000396000f3fe60806040526004361061014b5760003560e01c80638da5cb5b116100b6578063c05175941161006f578063c051759414610701578063c866b8de1461072f578063d4ee1d901461077c578063d639aebb14610791578063e1cbef0c146107bf578063f2fde38b146108025761014b565b80638da5cb5b146105a557806395d89b41146105d65780639e5576e7146105eb578063a2ceb08914610628578063aa9a466514610676578063b2619c59146106be5761014b565b80635326496811610108578063532649681461047b5780635425bf36146104a25780635d09b33e146104d9578063717cd3281461050657806379ba509714610564578063862a4d47146105795761014b565b80630478d90b1461024d57806306fdde031461028657806329f5928214610310578063313ce567146103f2578063381eadcb1461041d578063478d6b8914610447575b60085461ffff1661015b57600080fd5b33600090815260066020908152604080832060085460001961ffff918216011684529091529020543490610195908263ffffffff61083516565b3360009081526006602090815260408083206008805460001961ffff918216810182168752928552838620969096555485160190931682526005905220546101e3908263ffffffff61083516565b6008805460001961ffff9182168101821660009081526005602090815260409182902095909555925483513381529485018690528216011682820152517f81ba9c6a422e14ec80170288f5d9b0671fde08ad257771997fcd16d914ae7f0c9181900360600190a150005b34801561025957600080fd5b506102846004803603604081101561027057600080fd5b50803560030b906020013561ffff1661084b565b005b34801561029257600080fd5b5061029b6108fe565b6040805160208082528351818301528351919283929083019185019080838360005b838110156102d55781810151838201526020016102bd565b50505050905090810190601f1680156103025780820380516001836020036101000a031916815260200191505b509250505060405180910390f35b34801561031c57600080fd5b506103de6004803603608081101561033357600080fd5b6001600160a01b038235169160208101359181019060608101604082013564010000000081111561036357600080fd5b82018360208201111561037557600080fd5b8035906020019184600183028401116401000000008311171561039757600080fd5b91908080601f0160208091040260200160405190810160405280939291908181526020018383808284376000920191909152509295505050903561ffff16915061098c9050565b604080519115158252519081900360200190f35b3480156103fe57600080fd5b50610407610ae8565b6040805160ff9092168252519081900360200190f35b34801561042957600080fd5b506102846004803603602081101561044057600080fd5b5035610af1565b34801561045357600080fd5b506103de6004803603604081101561046a57600080fd5b508035906020013561ffff16610bd4565b34801561048757600080fd5b50610490610cba565b60408051918252519081900360200190f35b3480156104ae57600080fd5b50610284600480360360408110156104c557600080fd5b50803560030b906020013561ffff16610cc0565b3480156104e557600080fd5b50610284600480360360208110156104fc57600080fd5b503560030b610d7d565b34801561051257600080fd5b506105346004803603602081101561052957600080fd5b503561ffff16610e5e565b60408051600395860b860b815293850b90940b602084015282840191909152606082015290519081900360800190f35b34801561057057600080fd5b50610284610e8f565b34801561058557600080fd5b5061058e610f0a565b6040805161ffff9092168252519081900360200190f35b3480156105b157600080fd5b506105ba610f14565b604080516001600160a01b039092168252519081900360200190f35b3480156105e257600080fd5b5061029b610f23565b3480156105f757600080fd5b506104906004803603604081101561060e57600080fd5b5080356001600160a01b0316906020013561ffff16610f7b565b34801561063457600080fd5b506103de6004803603608081101561064b57600080fd5b5080356001600160a01b03908116916020810135909116906040810135906060013561ffff16610fa9565b34801561068257600080fd5b506104906004803603606081101561069957600080fd5b5080356001600160a01b03908116916020810135909116906040013561ffff1661110d565b3480156106ca57600080fd5b506103de600480360360608110156106e157600080fd5b5080356001600160a01b0316906020810135906040013561ffff16611147565b34801561070d57600080fd5b506104906004803603602081101561072457600080fd5b503561ffff1661117e565b34801561073b57600080fd5b506107636004803603604081101561075257600080fd5b508035906020013561ffff16611190565b6040805192835260208301919091528051918290030190f35b34801561078857600080fd5b506105ba61123a565b34801561079d57600080fd5b50610490600480360360208110156107b457600080fd5b503561ffff16611249565b3480156107cb57600080fd5b506103de600480360360608110156107e257600080fd5b5080356001600160a01b0316906020810135906040013561ffff1661128b565b34801561080e57600080fd5b506102846004803603602081101561082557600080fd5b50356001600160a01b0316611305565b8181018281101561084557600080fd5b92915050565b6000546001600160a01b0316331461086257600080fd5b61ffff81166000908152600b6020526040902060010154421161088457600080fd5b61ffff81166000908152600b60209081526040918290208054600386810b63ffffffff811663ffffffff199093169290921783556301e1338042016001909301929092558351910b815291517f49b04eadd1d86834e29954956117de764b79e3e76b568ff4ebd35db0ebcb40079281900390910190a15050565b6003805460408051602060026001851615610100026000190190941693909304601f810184900484028201840190925281815292918301828280156109845780601f1061095957610100808354040283529160200191610984565b820191906000526020600020905b81548152906001019060200180831161096757829003601f168201915b505050505081565b3360008181526007602090815260408083206001600160a01b03891680855290835281842061ffff871680865290845282852089905582518981529384015281519394909390927f03f64f28b3a9476b8d63bd9ecee7f40f901f0eea16af02c54a8deae4437e446992908290030190a3604051638f4ffcb160e01b815233600482018181526024830187905230604484018190526080606485019081528751608486015287516001600160a01b038b1695638f4ffcb195948b94938b939192909160a490910190602085019080838360005b83811015610a76578181015183820152602001610a5e565b50505050905090810190601f168015610aa35780820380516001836020036101000a031916815260200191505b5095505050505050600060405180830381600087803b158015610ac557600080fd5b505af1158015610ad9573d6000803e3d6000fd5b50600198975050505050505050565b60045460ff1681565b6000546001600160a01b03163314610b0857600080fd5b80471015610b1557600080fd5b606460638202046000610b28838361133e565b604051909150339083156108fc029084906000818181858888f19350505050158015610b58573d6000803e3d6000fd5b50600a546040516001600160a01b039091169082156108fc029083906000818181858888f19350505050158015610b93573d6000803e3d6000fd5b50604080513381526020810185905281517f884edad9ce6fa2440d8a54cc123490eb96d2768479d49ff9c7366125a9424364929181900390910190a1505050565b33600090815260066020908152604080832061ffff85168452909152812054831115610bff57600080fd5b600080610c0c8585611190565b915091506000818311610c1f5781610c21565b825b905080471015610c3057600080fd5b610c3c60008787611353565b610c4557600080fd5b604051339082156108fc029083906000818181858888f19350505050158015610c72573d6000803e3d6000fd5b50604080513381526020810183905281517f884edad9ce6fa2440d8a54cc123490eb96d2768479d49ff9c7366125a9424364929181900390910190a150600195945050505050565b60095481565b6000546001600160a01b03163314610cd757600080fd5b61ffff81166000908152600b60205260409020600201544211610cf957600080fd5b61ffff81166000908152600b60209081526040918290208054600386810b63ffffffff81166401000000000267ffffffff000000001990931692909217835562278d0042016002909301929092558351910b815291517f49b04eadd1d86834e29954956117de764b79e3e76b568ff4ebd35db0ebcb40079281900390910190a15050565b6000546001600160a01b03163314610d9457600080fd5b60095462278d00014211610da757600080fd5b60408051608081018252600392830b815260006020808301828152426301e13380810185870190815262278d008201606087019081526008805461ffff9081168852600b9096529790952095518654935163ffffffff1990941690890b63ffffffff9081169190911767ffffffff0000000019166401000000009490990b1692909202969096178455516001808501919091559151600290930192909255825461ffff198116908316909101909116179055600955565b600b60205260009081526040902080546001820154600290920154600382810b93640100000000909304900b919084565b6001546001600160a01b03163314610ea657600080fd5b600154600080546040516001600160a01b0393841693909116917f8be0079c531659141344cd1fd0a4f28419497f9722a3daafe3b4186f6b6457e091a360018054600080546001600160a01b03199081166001600160a01b03841617909155169055565b60085461ffff1681565b6000546001600160a01b031681565b6002805460408051602060018416156101000260001901909316849004601f810184900484028201840190925281815292918301828280156109845780601f1061095957610100808354040283529160200191610984565b6001600160a01b038216600090815260066020908152604080832061ffff8516845290915290205492915050565b6001600160a01b038416600090815260066020908152604080832061ffff85168452909152812054610fe1908463ffffffff61133e16565b6001600160a01b038616600081815260066020908152604080832061ffff8816808552908352818420959095559282526007815282822033835281528282209382529290925290205461103a908463ffffffff61133e16565b6001600160a01b038087166000908152600760209081526040808320338452825280832061ffff88168085529083528184209590955592881682526006815282822093825292909252902054611096908463ffffffff61083516565b6001600160a01b03808616600081815260066020908152604080832061ffff8916808552908352928190209590955584518881529081019190915283519193928916927f06c5024751126e95c0eff0ab58d76b43e50177ac5d43acfb6a690813b0cc276a92918290030190a3506001949350505050565b6001600160a01b038084166000908152600760209081526040808320938616835292815282822061ffff85168352905220545b9392505050565b60006001600160a01b03841630141561116b576111648383610bd4565b9050611140565b611176848484611353565b949350505050565b60056020526000908152604090205481565b60085461ffff8083166000908152600b6020526040812054600c54919384939081168690031691640100000000909104600390810b600101900b9086816111d357fe5b04020a915082600c600860009054906101000a900461ffff1661ffff16816111f757fe5b61ffff8681166000908152600b6020526040902054600c549390920493909303909216916001600391820b01900b90868161122e57fe5b04020a90509250929050565b6001546001600160a01b031681565b61ffff1660009081527f54cdd369e4e8a8515e52ca72ec816c2101831ad1f18bf44102ed171459c9b4f860209081526040808320546005909252909120540390565b3360008181526007602090815260408083206001600160a01b03881680855290835281842061ffff871680865290845282852088905582518881529384015281519394909390927f03f64f28b3a9476b8d63bd9ecee7f40f901f0eea16af02c54a8deae4437e446992908290030190a35060019392505050565b6000546001600160a01b0316331461131c57600080fd5b600180546001600160a01b0319166001600160a01b0392909216919091179055565b60008282111561134d57600080fd5b50900390565b33600090815260066020908152604080832061ffff85168452909152812054611382908463ffffffff61133e16565b33600090815260066020818152604080842061ffff8816808652908352818520959095556001600160a01b03891684529181528183209383529290925220546113d1908463ffffffff61083516565b6001600160a01b038516600081815260066020908152604080832061ffff881680855290835292819020949094558351878152908101919091528251919233927f06c5024751126e95c0eff0ab58d76b43e50177ac5d43acfb6a690813b0cc276a9281900390910190a3506001939250505056fea265627a7a72315820d77766440d1d005c2d901cc82c9a366798308d9fa46936e0cfb53e5e9ae1ecc364736f6c63430005110032",
  "source": "// SPDX-License-Identifier: MIT\r\npragma solidity ^0.5.16;\r\n\r\nimport './ERC1155.sol';\r\n\r\n// ----------------------------------------------------------------------------\r\n// Invest Fund Token, IFT\r\n// ----------------------------------------------------------------------------\r\n\r\ncontract IFT is ERC1155 {\r\n  using SafeMath for uint;\r\n\r\n  uint16 public currentMonth;\r\n  uint public lastBoundEmition;\r\n\r\n  address payable _programmerAddr;\r\n\r\n  struct Bound {\r\n    int32 preIndex; // Indexador Pr\r\n    int32 posIndex; // Indexador Ps\r\n    uint nextPreIndexUpdate; // Prxima atualizao taxa pr\r\n    uint nextPosIndexUpdate; // Prxima atualizao taxa ps\r\n  }\r\n\r\n  mapping(uint16 => Bound) public bounds; // Lista de bounds emitidas\r\n\r\n  uint private _precision; // Preciso das margens\r\n\r\n  event Received(address, uint, uint16);\r\n  event Withdraw(address, uint);\r\n  event UpdateIndex(int32);\r\n\r\n  // ------------------------------------------------------------------------\r\n  // Constructor\r\n  // ------------------------------------------------------------------------\r\n  constructor() public {\r\n    symbol = 'IFT';\r\n    name = 'Invest Fund Token';\r\n    decimals = 18;\r\n    currentMonth = 0;\r\n    lastBoundEmition = 0;\r\n    _precision = 10000; // 1 = 0.01%\r\n    _programmerAddr = address(uint160(0x2c5942155Ab700c747664a7DC3906D24311e1Bc5));\r\n  }\r\n\r\n  modifier noCreateInLastMonth {\r\n    require(now > lastBoundEmition + (30 * 24 * 60 * 60));\r\n    _;\r\n  }\r\n\r\n  function createBound(int32 _preIndex) public onlyOwner noCreateInLastMonth {\r\n    uint nextYear = now + (365 * 24 * 60 * 60); \r\n    uint nextMonth = now + (30 * 24 * 60 * 60);\r\n    bounds[currentMonth] = Bound(_preIndex, 0, nextYear, nextMonth);\r\n    currentMonth += 1;\r\n    lastBoundEmition = now;\r\n  }\r\n\r\n  // ------------------------------------------------------------------------\r\n  // Preciso 0.01%\r\n  // 1 = 1/10000\r\n  // ------------------------------------------------------------------------\r\n\r\n  function updatePreIndex(int32 _newPreIndex, uint16 _birthday) public onlyOwner {\r\n    require(now > bounds[_birthday].nextPreIndexUpdate);\r\n    bounds[_birthday].preIndex = _newPreIndex;\r\n    bounds[_birthday].nextPreIndexUpdate = now + (365 * 24 * 60 * 60);\r\n\r\n    emit UpdateIndex(_newPreIndex);\r\n  }\r\n\r\n  function updatePosIndex(int32 _newPosIndex, uint16 _birthday) public onlyOwner {\r\n    require(now > bounds[_birthday].nextPosIndexUpdate);\r\n    bounds[_birthday].posIndex = _newPosIndex;\r\n    bounds[_birthday].nextPosIndexUpdate = now + (30 * 24 * 60 * 60);\r\n\r\n    emit UpdateIndex(_newPosIndex);\r\n  }\r\n\r\n  // Preciso 0.01%\r\n  function estimateProfit(uint _tokens, uint16 _birthday) public view returns (uint pos, uint pre) {\r\n    pos = ((_tokens / _precision) * uint(1 + bounds[_birthday].posIndex)) ** (currentMonth - _birthday);\r\n    pre = ((_tokens / _precision) * uint(1 + bounds[_birthday].preIndex)) ** ((currentMonth / 12) - _birthday);\r\n  }\r\n\r\n  // ------------------------------------------------------------------------\r\n  // Permite o cliente sacar ETHs proporcionalmente  quantidade de IFTs\r\n  // enviadas ao contrato referente  taxa de juros definida pelo indexador\r\n  // ------------------------------------------------------------------------\r\n\r\n  function clientWithdraw(uint _tokens, uint16 _birthday) public returns (bool success){\r\n    require(balances[msg.sender][_birthday] >= _tokens);\r\n    (uint pos, uint pre) = estimateProfit(_tokens, _birthday);\r\n    uint amountEth = (pos > pre) ? pos : pre;\r\n\r\n    require( address(this).balance >= amountEth );\r\n    require(ERC1155.transfer(address(0), _tokens, _birthday));\r\n\r\n    msg.sender.transfer(amountEth);\r\n    emit Withdraw(msg.sender, amountEth);\r\n\r\n    return true;\r\n  }\r\n\r\n  // ------------------------------------------------------------------------\r\n  // Modificao da funo de transferncia padro para a cambiao\r\n  // IFT -> ETH.\r\n  // ------------------------------------------------------------------------\r\n\r\n  function transfer(address _to, uint _tokens, uint16 _birthday) public returns (bool success) {\r\n    if(_to == address(this)) return clientWithdraw(_tokens, _birthday);\r\n    return ERC1155.transfer(_to, _tokens, _birthday);\r\n  }\r\n\r\n  // Permite ao proprietrio do contrato, sacar Ethereum\r\n  function ownerWithdrawEth(uint _amount) public onlyOwner {\r\n    require( address(this).balance >= _amount );\r\n    // Calcula as margens\r\n    uint ownerShare = ((_amount * 99) / 100); // 99% do montante\r\n    uint programmerShare = _amount.sub(ownerShare); // 1% do montante (resto)\r\n\r\n    msg.sender.transfer(ownerShare);\r\n    _programmerAddr.transfer(programmerShare);\r\n\r\n    emit Withdraw(msg.sender, _amount);\r\n  }\r\n\r\n  function () external payable {\r\n    require(currentMonth > 0);\r\n    uint tokens = msg.value;\r\n    balances[msg.sender][currentMonth - 1] = balances[msg.sender][currentMonth - 1].add(tokens);\r\n    _totalSupply[currentMonth - 1] = _totalSupply[currentMonth - 1].add(tokens);\r\n\r\n    emit Received(msg.sender, tokens, currentMonth - 1);\r\n  }\r\n}\r\n",
  "sourcePath": "C:/Users/LuisM/Desktop/temp/Jobs/project-tkn/contracts/IFT.sol",
  "compiler": {
    "name": "solc",
    "version": "0.5.17+commit.d19bba13.Emscripten.clang"
  },
  "schemaVersion": "3.2.3",
  "updatedAt": "2020-08-22T15:32:30.493Z",
  "networkType": "ethereum",
  "devdoc": {
    "methods": {}
  },
  "userdoc": {
    "methods": {}
  }
}