{
  "contractName": "IFT",
  "abi": [
    {
      "inputs": [],
      "payable": false,
      "stateMutability": "nonpayable",
      "type": "constructor"
    },
    {
      "anonymous": false,
      "inputs": [
        {
          "indexed": true,
          "internalType": "address",
          "name": "tokenOwner",
          "type": "address"
        },
        {
          "indexed": true,
          "internalType": "address",
          "name": "spender",
          "type": "address"
        },
        {
          "indexed": false,
          "internalType": "uint256",
          "name": "tokens",
          "type": "uint256"
        },
        {
          "indexed": false,
          "internalType": "uint16",
          "name": "_birthday",
          "type": "uint16"
        }
      ],
      "name": "Approval",
      "type": "event"
    },
    {
      "anonymous": false,
      "inputs": [
        {
          "indexed": true,
          "internalType": "address",
          "name": "_from",
          "type": "address"
        },
        {
          "indexed": true,
          "internalType": "address",
          "name": "_to",
          "type": "address"
        }
      ],
      "name": "OwnershipTransferred",
      "type": "event"
    },
    {
      "anonymous": false,
      "inputs": [
        {
          "indexed": false,
          "internalType": "address",
          "name": "",
          "type": "address"
        },
        {
          "indexed": false,
          "internalType": "uint256",
          "name": "",
          "type": "uint256"
        },
        {
          "indexed": false,
          "internalType": "uint16",
          "name": "",
          "type": "uint16"
        }
      ],
      "name": "Received",
      "type": "event"
    },
    {
      "anonymous": false,
      "inputs": [
        {
          "indexed": true,
          "internalType": "address",
          "name": "from",
          "type": "address"
        },
        {
          "indexed": true,
          "internalType": "address",
          "name": "to",
          "type": "address"
        },
        {
          "indexed": false,
          "internalType": "uint256",
          "name": "tokens",
          "type": "uint256"
        },
        {
          "indexed": false,
          "internalType": "uint16",
          "name": "_birthday",
          "type": "uint16"
        }
      ],
      "name": "Transfer",
      "type": "event"
    },
    {
      "anonymous": false,
      "inputs": [
        {
          "indexed": false,
          "internalType": "int16",
          "name": "",
          "type": "int16"
        }
      ],
      "name": "UpdateIndex",
      "type": "event"
    },
    {
      "anonymous": false,
      "inputs": [
        {
          "indexed": false,
          "internalType": "address",
          "name": "",
          "type": "address"
        },
        {
          "indexed": false,
          "internalType": "uint256",
          "name": "",
          "type": "uint256"
        }
      ],
      "name": "Withdraw",
      "type": "event"
    },
    {
      "payable": true,
      "stateMutability": "payable",
      "type": "fallback"
    },
    {
      "constant": true,
      "inputs": [
        {
          "internalType": "uint16",
          "name": "",
          "type": "uint16"
        }
      ],
      "name": "_totalSupply",
      "outputs": [
        {
          "internalType": "uint256",
          "name": "",
          "type": "uint256"
        }
      ],
      "payable": false,
      "stateMutability": "view",
      "type": "function"
    },
    {
      "constant": false,
      "inputs": [],
      "name": "acceptOwnership",
      "outputs": [],
      "payable": false,
      "stateMutability": "nonpayable",
      "type": "function"
    },
    {
      "constant": true,
      "inputs": [
        {
          "internalType": "address",
          "name": "tokenOwner",
          "type": "address"
        },
        {
          "internalType": "address",
          "name": "spender",
          "type": "address"
        },
        {
          "internalType": "uint16",
          "name": "_birthday",
          "type": "uint16"
        }
      ],
      "name": "allowance",
      "outputs": [
        {
          "internalType": "uint256",
          "name": "remaining",
          "type": "uint256"
        }
      ],
      "payable": false,
      "stateMutability": "view",
      "type": "function"
    },
    {
      "constant": false,
      "inputs": [
        {
          "internalType": "address",
          "name": "spender",
          "type": "address"
        },
        {
          "internalType": "uint256",
          "name": "tokens",
          "type": "uint256"
        },
        {
          "internalType": "uint16",
          "name": "_birthday",
          "type": "uint16"
        }
      ],
      "name": "approve",
      "outputs": [
        {
          "internalType": "bool",
          "name": "success",
          "type": "bool"
        }
      ],
      "payable": false,
      "stateMutability": "nonpayable",
      "type": "function"
    },
    {
      "constant": false,
      "inputs": [
        {
          "internalType": "address",
          "name": "spender",
          "type": "address"
        },
        {
          "internalType": "uint256",
          "name": "tokens",
          "type": "uint256"
        },
        {
          "internalType": "bytes",
          "name": "data",
          "type": "bytes"
        },
        {
          "internalType": "uint16",
          "name": "_birthday",
          "type": "uint16"
        }
      ],
      "name": "approveAndCall",
      "outputs": [
        {
          "internalType": "bool",
          "name": "success",
          "type": "bool"
        }
      ],
      "payable": false,
      "stateMutability": "nonpayable",
      "type": "function"
    },
    {
      "constant": true,
      "inputs": [
        {
          "internalType": "address",
          "name": "tokenOwner",
          "type": "address"
        },
        {
          "internalType": "uint16",
          "name": "_birthday",
          "type": "uint16"
        }
      ],
      "name": "balanceOf",
      "outputs": [
        {
          "internalType": "uint256",
          "name": "balance",
          "type": "uint256"
        }
      ],
      "payable": false,
      "stateMutability": "view",
      "type": "function"
    },
    {
      "constant": true,
      "inputs": [],
      "name": "decimals",
      "outputs": [
        {
          "internalType": "uint8",
          "name": "",
          "type": "uint8"
        }
      ],
      "payable": false,
      "stateMutability": "view",
      "type": "function"
    },
    {
      "constant": true,
      "inputs": [],
      "name": "name",
      "outputs": [
        {
          "internalType": "string",
          "name": "",
          "type": "string"
        }
      ],
      "payable": false,
      "stateMutability": "view",
      "type": "function"
    },
    {
      "constant": true,
      "inputs": [],
      "name": "newOwner",
      "outputs": [
        {
          "internalType": "address",
          "name": "",
          "type": "address"
        }
      ],
      "payable": false,
      "stateMutability": "view",
      "type": "function"
    },
    {
      "constant": true,
      "inputs": [],
      "name": "owner",
      "outputs": [
        {
          "internalType": "address",
          "name": "",
          "type": "address"
        }
      ],
      "payable": false,
      "stateMutability": "view",
      "type": "function"
    },
    {
      "constant": true,
      "inputs": [],
      "name": "symbol",
      "outputs": [
        {
          "internalType": "string",
          "name": "",
          "type": "string"
        }
      ],
      "payable": false,
      "stateMutability": "view",
      "type": "function"
    },
    {
      "constant": true,
      "inputs": [
        {
          "internalType": "uint16",
          "name": "_birthday",
          "type": "uint16"
        }
      ],
      "name": "totalSupply",
      "outputs": [
        {
          "internalType": "uint256",
          "name": "",
          "type": "uint256"
        }
      ],
      "payable": false,
      "stateMutability": "view",
      "type": "function"
    },
    {
      "constant": false,
      "inputs": [
        {
          "internalType": "address",
          "name": "from",
          "type": "address"
        },
        {
          "internalType": "address",
          "name": "to",
          "type": "address"
        },
        {
          "internalType": "uint256",
          "name": "tokens",
          "type": "uint256"
        },
        {
          "internalType": "uint16",
          "name": "_birthday",
          "type": "uint16"
        }
      ],
      "name": "transferFrom",
      "outputs": [
        {
          "internalType": "bool",
          "name": "success",
          "type": "bool"
        }
      ],
      "payable": false,
      "stateMutability": "nonpayable",
      "type": "function"
    },
    {
      "constant": false,
      "inputs": [
        {
          "internalType": "address",
          "name": "_newOwner",
          "type": "address"
        }
      ],
      "name": "transferOwnership",
      "outputs": [],
      "payable": false,
      "stateMutability": "nonpayable",
      "type": "function"
    },
    {
      "constant": false,
      "inputs": [
        {
          "internalType": "int16",
          "name": "_newPreIndex",
          "type": "int16"
        }
      ],
      "name": "updatePreIndex",
      "outputs": [],
      "payable": false,
      "stateMutability": "nonpayable",
      "type": "function"
    },
    {
      "constant": false,
      "inputs": [
        {
          "internalType": "int16",
          "name": "_newPosIndex",
          "type": "int16"
        }
      ],
      "name": "updatePosIndex",
      "outputs": [],
      "payable": false,
      "stateMutability": "nonpayable",
      "type": "function"
    },
    {
      "constant": true,
      "inputs": [
        {
          "internalType": "uint256",
          "name": "_tokens",
          "type": "uint256"
        },
        {
          "internalType": "uint16",
          "name": "_birthday",
          "type": "uint16"
        }
      ],
      "name": "estimateProfit",
      "outputs": [
        {
          "internalType": "uint256",
          "name": "pos",
          "type": "uint256"
        },
        {
          "internalType": "uint256",
          "name": "pre",
          "type": "uint256"
        }
      ],
      "payable": false,
      "stateMutability": "view",
      "type": "function"
    },
    {
      "constant": false,
      "inputs": [
        {
          "internalType": "uint256",
          "name": "_tokens",
          "type": "uint256"
        },
        {
          "internalType": "uint16",
          "name": "_birthday",
          "type": "uint16"
        }
      ],
      "name": "clientWithdraw",
      "outputs": [
        {
          "internalType": "bool",
          "name": "success",
          "type": "bool"
        }
      ],
      "payable": false,
      "stateMutability": "nonpayable",
      "type": "function"
    },
    {
      "constant": false,
      "inputs": [
        {
          "internalType": "address",
          "name": "to",
          "type": "address"
        },
        {
          "internalType": "uint256",
          "name": "tokens",
          "type": "uint256"
        },
        {
          "internalType": "uint16",
          "name": "_birthday",
          "type": "uint16"
        }
      ],
      "name": "transfer",
      "outputs": [
        {
          "internalType": "bool",
          "name": "success",
          "type": "bool"
        }
      ],
      "payable": false,
      "stateMutability": "nonpayable",
      "type": "function"
    },
    {
      "constant": false,
      "inputs": [
        {
          "internalType": "uint256",
          "name": "_amount",
          "type": "uint256"
        }
      ],
      "name": "ownerWithdrawEth",
      "outputs": [],
      "payable": false,
      "stateMutability": "nonpayable",
      "type": "function"
    }
  ],
  "bytecode": "0x60806040523480156200001157600080fd5b50600080546001600160a01b0319163317905560408051808201909152600580825264119256115160da1b602090920191825262000052916002916200019e565b5060408051808201909152601a8082527f4578616d706c6520466978656420537570706c7920546f6b656e000000000000602090920191825262000099916003916200019e565b506004805460ff191660121790556040805180820190915260038082526212519560ea1b6020909201918252620000d3916002916200019e565b506040805180820190915260118082527024b73b32b9ba10233ab732102a37b5b2b760791b60209092019182526200010e916003916200019e565b506004805460ff19166012179055600d805461ffff1990811661271017909155600a80548216905560008080527f5eff886ea0ce6ca488a3d6e336d6c0f75f46d19b42c06ce5ee98e42c96d256c780548316905560096020527fec8156718a8372b1db44bb411437d0870f3e3790d4a08526d024ce1b0b668f6b8054909216909155600b819055600c5562000243565b828054600181600116156101000203166002900490600052602060002090601f016020900481019282601f10620001e157805160ff191683800117855562000211565b8280016001018555821562000211579182015b8281111562000211578251825591602001919060010190620001f4565b506200021f92915062000223565b5090565b6200024091905b808211156200021f57600081556001016200022a565b90565b61116d80620002536000396000f3fe60806040526004361061011f5760003560e01c8063a2ceb089116100a0578063c866b8de11610064578063c866b8de146105c0578063d4ee1d901461060d578063d639aebb14610622578063e1cbef0c14610650578063f2fde38b146106935761011f565b8063a2ceb0891461048c578063aa9a4665146104da578063b2619c5914610522578063bad8632114610565578063c0517594146105925761011f565b806379ba5097116100e757806379ba5097146103b55780638da5cb5b146103ca578063930a84b6146103fb57806395d89b41146104285780639e5576e71461043d5761011f565b806306fdde03146101be57806329f5928214610248578063313ce5671461032a578063381eadcb14610355578063478d6b8914610381575b336000908152600660209081526040808320600a5461ffff1684529091529020543490610152908263ffffffff6106c616565b336000818152600660209081526040808320600a805461ffff90811686529184529382902095909555915482519384529083018590529092168183015290517f81ba9c6a422e14ec80170288f5d9b0671fde08ad257771997fcd16d914ae7f0c9181900360600190a150005b3480156101ca57600080fd5b506101d36106dc565b6040805160208082528351818301528351919283929083019185019080838360005b8381101561020d5781810151838201526020016101f5565b50505050905090810190601f16801561023a5780820380516001836020036101000a031916815260200191505b509250505060405180910390f35b34801561025457600080fd5b506103166004803603608081101561026b57600080fd5b6001600160a01b038235169160208101359181019060608101604082013564010000000081111561029b57600080fd5b8201836020820111156102ad57600080fd5b803590602001918460018302840111640100000000831117156102cf57600080fd5b91908080601f0160208091040260200160405190810160405280939291908181526020018383808284376000920191909152509295505050903561ffff16915061076a9050565b604080519115158252519081900360200190f35b34801561033657600080fd5b5061033f6108c6565b6040805160ff9092168252519081900360200190f35b34801561036157600080fd5b5061037f6004803603602081101561037857600080fd5b50356108cf565b005b34801561038d57600080fd5b50610316600480360360408110156103a457600080fd5b508035906020013561ffff1661095f565b3480156103c157600080fd5b5061037f610a45565b3480156103d657600080fd5b506103df610ac0565b604080516001600160a01b039092168252519081900360200190f35b34801561040757600080fd5b5061037f6004803603602081101561041e57600080fd5b503560010b610acf565b34801561043457600080fd5b506101d3610b73565b34801561044957600080fd5b5061047a6004803603604081101561046057600080fd5b5080356001600160a01b0316906020013561ffff16610bcb565b60408051918252519081900360200190f35b34801561049857600080fd5b50610316600480360360808110156104af57600080fd5b5080356001600160a01b03908116916020810135909116906040810135906060013561ffff16610bf9565b3480156104e657600080fd5b5061047a600480360360608110156104fd57600080fd5b5080356001600160a01b03908116916020810135909116906040013561ffff16610d5d565b34801561052e57600080fd5b506103166004803603606081101561054557600080fd5b5080356001600160a01b0316906020810135906040013561ffff16610d97565b34801561057157600080fd5b5061037f6004803603602081101561058857600080fd5b503560010b610dce565b34801561059e57600080fd5b5061047a600480360360208110156105b557600080fd5b503561ffff16610e78565b3480156105cc57600080fd5b506105f4600480360360408110156105e357600080fd5b508035906020013561ffff16610e8a565b6040805192835260208301919091528051918290030190f35b34801561061957600080fd5b506103df610f2d565b34801561062e57600080fd5b5061047a6004803603602081101561064557600080fd5b503561ffff16610f3c565b34801561065c57600080fd5b506103166004803603606081101561067357600080fd5b5080356001600160a01b0316906020810135906040013561ffff16610f7e565b34801561069f57600080fd5b5061037f600480360360208110156106b657600080fd5b50356001600160a01b0316610ff8565b818101828110156106d657600080fd5b92915050565b6003805460408051602060026001851615610100026000190190941693909304601f810184900484028201840190925281815292918301828280156107625780601f1061073757610100808354040283529160200191610762565b820191906000526020600020905b81548152906001019060200180831161074557829003601f168201915b505050505081565b3360008181526007602090815260408083206001600160a01b03891680855290835281842061ffff871680865290845282852089905582518981529384015281519394909390927f03f64f28b3a9476b8d63bd9ecee7f40f901f0eea16af02c54a8deae4437e446992908290030190a3604051638f4ffcb160e01b815233600482018181526024830187905230604484018190526080606485019081528751608486015287516001600160a01b038b1695638f4ffcb195948b94938b939192909160a490910190602085019080838360005b8381101561085457818101518382015260200161083c565b50505050905090810190601f1680156108815780820380516001836020036101000a031916815260200191505b5095505050505050600060405180830381600087803b1580156108a357600080fd5b505af11580156108b7573d6000803e3d6000fd5b50600198975050505050505050565b60045460ff1681565b6000546001600160a01b031633146108e657600080fd5b804710156108f357600080fd5b604051339082156108fc029083906000818181858888f19350505050158015610920573d6000803e3d6000fd5b50604080513381526020810183905281517f884edad9ce6fa2440d8a54cc123490eb96d2768479d49ff9c7366125a9424364929181900390910190a150565b33600090815260066020908152604080832061ffff8516845290915281205483111561098a57600080fd5b6000806109978585610e8a565b9150915060008183116109aa57816109ac565b825b9050804710156109bb57600080fd5b6109c760008787611031565b6109d057600080fd5b604051339082156108fc029083906000818181858888f193505050501580156109fd573d6000803e3d6000fd5b50604080513381526020810183905281517f884edad9ce6fa2440d8a54cc123490eb96d2768479d49ff9c7366125a9424364929181900390910190a150600195945050505050565b6001546001600160a01b03163314610a5c57600080fd5b600154600080546040516001600160a01b0393841693909116917f8be0079c531659141344cd1fd0a4f28419497f9722a3daafe3b4186f6b6457e091a360018054600080546001600160a01b03199081166001600160a01b03841617909155169055565b6000546001600160a01b031681565b6000546001600160a01b03163314610ae657600080fd5b600b546301e13380014211610afa57600080fd5b600a54600090600c9061ffff160461ffff818116600090815260086020908152604091829020805461ffff1916600188810b9586169190911790915542600b55825193900b835290519293507f9315579e8cfd2c23be23d550720ce09098d4bf23f6d0a725e4e6b6034789442892918290030190a15050565b6002805460408051602060018416156101000260001901909316849004601f810184900484028201840190925281815292918301828280156107625780601f1061073757610100808354040283529160200191610762565b6001600160a01b038216600090815260066020908152604080832061ffff8516845290915290205492915050565b6001600160a01b038416600090815260066020908152604080832061ffff85168452909152812054610c31908463ffffffff61112316565b6001600160a01b038616600081815260066020908152604080832061ffff88168085529083528184209590955592825260078152828220338352815282822093825292909252902054610c8a908463ffffffff61112316565b6001600160a01b038087166000908152600760209081526040808320338452825280832061ffff88168085529083528184209590955592881682526006815282822093825292909252902054610ce6908463ffffffff6106c616565b6001600160a01b03808616600081815260066020908152604080832061ffff8916808552908352928190209590955584518881529081019190915283519193928916927f06c5024751126e95c0eff0ab58d76b43e50177ac5d43acfb6a690813b0cc276a92918290030190a3506001949350505050565b6001600160a01b038084166000908152600760209081526040808320938616835292815282822061ffff85168352905220545b9392505050565b60006001600160a01b038416301415610dbb57610db4838361095f565b9050610d90565b610dc6848484611031565b949350505050565b6000546001600160a01b03163314610de557600080fd5b600c5462278d00014211610df857600080fd5b600a805461ffff9081166000908152600960209081526040918290208054600187810b80871661ffff199384161790935586548087168201909616959091169490941790945542600c5581519390920b8352517f9315579e8cfd2c23be23d550720ce09098d4bf23f6d0a725e4e6b603478944289281900390910190a150565b60056020526000908152604090205481565b600a5461ffff808316600090815260096020526040812054600d5491938493908116869003811692600192830b830190920b91168681610ec657fe5b04020a915082600c600a60009054906101000a900461ffff1661ffff1681610eea57fe5b61ffff868116600090815260086020526040902054600d549390920493909303831692600191820b820190910b91168681610f2157fe5b04020a90509250929050565b6001546001600160a01b031681565b61ffff1660009081527f54cdd369e4e8a8515e52ca72ec816c2101831ad1f18bf44102ed171459c9b4f860209081526040808320546005909252909120540390565b3360008181526007602090815260408083206001600160a01b03881680855290835281842061ffff871680865290845282852088905582518881529384015281519394909390927f03f64f28b3a9476b8d63bd9ecee7f40f901f0eea16af02c54a8deae4437e446992908290030190a35060019392505050565b6000546001600160a01b0316331461100f57600080fd5b600180546001600160a01b0319166001600160a01b0392909216919091179055565b33600090815260066020908152604080832061ffff85168452909152812054611060908463ffffffff61112316565b33600090815260066020818152604080842061ffff8816808652908352818520959095556001600160a01b03891684529181528183209383529290925220546110af908463ffffffff6106c616565b6001600160a01b038516600081815260066020908152604080832061ffff881680855290835292819020949094558351878152908101919091528251919233927f06c5024751126e95c0eff0ab58d76b43e50177ac5d43acfb6a690813b0cc276a9281900390910190a35060019392505050565b60008282111561113257600080fd5b5090039056fea265627a7a723158206f37eb9dff679959985493abc04dbaae527d3d09680178e11d7a0dbde28d211964736f6c63430005110032",
  "source": "// SPDX-License-Identifier: MIT\r\npragma solidity ^0.5.16;\r\n\r\nimport './ERC1155.sol';\r\n\r\n// ----------------------------------------------------------------------------\r\n// Invest Fund Token, IFT\r\n// ----------------------------------------------------------------------------\r\n\r\ncontract IFT is ERC1155 {\r\n  using SafeMath for uint;\r\n\r\n  mapping(uint16 => int16) private _tokenPreIndex; // Indexador Pr\r\n  mapping(uint16 => int16) private _tokenPosIndex; // Indexador Ps\r\n  uint16 private _currentMonth; // Ms vigente\r\n  uint private _lastPreIndexUpdate; // ltima atualizao do pr-indexador\r\n  uint private _lastPosIndexUpdate; // ltima atualizao do pr-indexador\r\n\r\n  uint16 private _precision; //Preciso das margens\r\n\r\n  event Received(address, uint, uint16);\r\n  event Withdraw(address, uint);\r\n  event UpdateIndex(int16);\r\n\r\n  // ------------------------------------------------------------------------\r\n  // Constructor\r\n  // ------------------------------------------------------------------------\r\n  constructor() public {\r\n    symbol = \"IFT\";\r\n    name = \"Invest Fund Token\";\r\n    decimals = 18;\r\n    _precision = 10000; // 1 = 0.01%. \r\n\r\n    _currentMonth = 0;\r\n\r\n    _tokenPreIndex[0] = 0;\r\n    _tokenPosIndex[0] = 0;\r\n\r\n    _lastPreIndexUpdate = 0;\r\n    _lastPosIndexUpdate = 0;\r\n  }\r\n\r\n  modifier noUpdateInLastMonth{\r\n    require(now > _lastPosIndexUpdate + (30 * 24 * 60 * 60));\r\n    _;\r\n  }\r\n\r\n  modifier noUpdateInLastYear{\r\n    require(now > _lastPreIndexUpdate + (365 * 24 * 60 * 60));\r\n    _;\r\n  }\r\n\r\n  // Preciso 0.01% \r\n  function updatePreIndex(int16 _newPreIndex) public onlyOwner noUpdateInLastYear {\r\n    uint16 currentYear = _currentMonth / 12;\r\n    _tokenPreIndex[currentYear] = _newPreIndex;\r\n    _lastPreIndexUpdate = now;\r\n    emit UpdateIndex(_newPreIndex);\r\n  }\r\n\r\n  // 1 = 1/10000\r\n  function updatePosIndex(int16 _newPosIndex) public onlyOwner noUpdateInLastMonth {\r\n    _tokenPosIndex[_currentMonth] = _newPosIndex;\r\n    _currentMonth++;\r\n    _lastPosIndexUpdate = now;\r\n    emit UpdateIndex(_newPosIndex);\r\n  }\r\n\r\n  function estimateProfit(uint _tokens, uint16 _birthday) public view returns (uint pos, uint pre) {\r\n    // Preciso 0.01%\r\n    pos = ((_tokens / _precision) * uint(1 + _tokenPosIndex[_birthday])) ** (_currentMonth - _birthday);\r\n    pre = ((_tokens / _precision) * uint(1 + _tokenPreIndex[_birthday])) ** ((_currentMonth / 12) - _birthday);\r\n  }\r\n\r\n  // ------------------------------------------------------------------------\r\n  // Permite o cliente sacar ETHs proporcionalmente  quantidade de IFTs\r\n  // enviadas ao contrato referente  taxa de juros definida pelo indexador\r\n  // ------------------------------------------------------------------------\r\n  function clientWithdraw(uint _tokens, uint16 _birthday) public returns (bool success){\r\n    require(balances[msg.sender][_birthday] >= _tokens);\r\n    (uint pos, uint pre) = estimateProfit(_tokens, _birthday);\r\n    uint amountEth = (pos > pre) ? pos : pre;\r\n\r\n    require( address(this).balance >= amountEth );\r\n    require(ERC1155.transfer(address(0), _tokens, _birthday));\r\n\r\n    msg.sender.transfer(amountEth);\r\n    emit Withdraw(msg.sender, amountEth);\r\n\r\n    return true;\r\n  }\r\n\r\n  // ------------------------------------------------------------------------\r\n  // Modificao da funo de transferncia padro para a cambiao\r\n  // IFT -> ETH.\r\n  // ------------------------------------------------------------------------\r\n  function transfer(address to, uint tokens, uint16 _birthday) public returns (bool success) {\r\n    if(to == address(this)) return clientWithdraw(tokens, _birthday);\r\n    return ERC1155.transfer(to, tokens, _birthday);\r\n  }\r\n\r\n  // Permite ao proprietrio do contrato, sacar Ethereum\r\n  function ownerWithdrawEth(uint _amount) public onlyOwner {\r\n    require( address(this).balance >= _amount );\r\n    msg.sender.transfer(_amount);\r\n    emit Withdraw(msg.sender, _amount);\r\n  }\r\n\r\n  function () external payable {\r\n    uint tokens = msg.value;\r\n    balances[msg.sender][_currentMonth] = balances[msg.sender][_currentMonth].add(tokens);\r\n\r\n    emit Received(msg.sender, tokens, _currentMonth);\r\n  }\r\n}",
  "sourcePath": "C:/Users/LuisM/Desktop/temp/Jobs/project-tkn/contracts/IFT.sol",
  "compiler": {
    "name": "solc",
    "version": "0.5.17+commit.d19bba13.Emscripten.clang"
  },
  "schemaVersion": "3.2.3",
  "updatedAt": "2020-08-21T15:37:47.831Z",
  "networkType": "ethereum",
  "devdoc": {
    "methods": {}
  },
  "userdoc": {
    "methods": {}
  }
}