{
  "contractName": "IFT",
  "abi": [
    {
      "inputs": [],
      "payable": false,
      "stateMutability": "nonpayable",
      "type": "constructor"
    },
    {
      "anonymous": false,
      "inputs": [
        {
          "indexed": true,
          "internalType": "address",
          "name": "tokenOwner",
          "type": "address"
        },
        {
          "indexed": true,
          "internalType": "address",
          "name": "spender",
          "type": "address"
        },
        {
          "indexed": false,
          "internalType": "uint256",
          "name": "tokens",
          "type": "uint256"
        }
      ],
      "name": "Approval",
      "type": "event"
    },
    {
      "anonymous": false,
      "inputs": [
        {
          "indexed": true,
          "internalType": "address",
          "name": "_from",
          "type": "address"
        },
        {
          "indexed": true,
          "internalType": "address",
          "name": "_to",
          "type": "address"
        }
      ],
      "name": "OwnershipTransferred",
      "type": "event"
    },
    {
      "anonymous": false,
      "inputs": [
        {
          "indexed": true,
          "internalType": "address",
          "name": "from",
          "type": "address"
        },
        {
          "indexed": true,
          "internalType": "address",
          "name": "to",
          "type": "address"
        },
        {
          "indexed": false,
          "internalType": "uint256",
          "name": "tokens",
          "type": "uint256"
        }
      ],
      "name": "Transfer",
      "type": "event"
    },
    {
      "payable": true,
      "stateMutability": "payable",
      "type": "fallback"
    },
    {
      "constant": true,
      "inputs": [],
      "name": "_totalSupply",
      "outputs": [
        {
          "internalType": "uint256",
          "name": "",
          "type": "uint256"
        }
      ],
      "payable": false,
      "stateMutability": "view",
      "type": "function"
    },
    {
      "constant": false,
      "inputs": [],
      "name": "acceptOwnership",
      "outputs": [],
      "payable": false,
      "stateMutability": "nonpayable",
      "type": "function"
    },
    {
      "constant": true,
      "inputs": [
        {
          "internalType": "address",
          "name": "tokenOwner",
          "type": "address"
        },
        {
          "internalType": "address",
          "name": "spender",
          "type": "address"
        }
      ],
      "name": "allowance",
      "outputs": [
        {
          "internalType": "uint256",
          "name": "remaining",
          "type": "uint256"
        }
      ],
      "payable": false,
      "stateMutability": "view",
      "type": "function"
    },
    {
      "constant": false,
      "inputs": [
        {
          "internalType": "address",
          "name": "spender",
          "type": "address"
        },
        {
          "internalType": "uint256",
          "name": "tokens",
          "type": "uint256"
        }
      ],
      "name": "approve",
      "outputs": [
        {
          "internalType": "bool",
          "name": "success",
          "type": "bool"
        }
      ],
      "payable": false,
      "stateMutability": "nonpayable",
      "type": "function"
    },
    {
      "constant": false,
      "inputs": [
        {
          "internalType": "address",
          "name": "spender",
          "type": "address"
        },
        {
          "internalType": "uint256",
          "name": "tokens",
          "type": "uint256"
        },
        {
          "internalType": "bytes",
          "name": "data",
          "type": "bytes"
        }
      ],
      "name": "approveAndCall",
      "outputs": [
        {
          "internalType": "bool",
          "name": "success",
          "type": "bool"
        }
      ],
      "payable": false,
      "stateMutability": "nonpayable",
      "type": "function"
    },
    {
      "constant": true,
      "inputs": [
        {
          "internalType": "address",
          "name": "tokenOwner",
          "type": "address"
        }
      ],
      "name": "balanceOf",
      "outputs": [
        {
          "internalType": "uint256",
          "name": "balance",
          "type": "uint256"
        }
      ],
      "payable": false,
      "stateMutability": "view",
      "type": "function"
    },
    {
      "constant": true,
      "inputs": [],
      "name": "decimals",
      "outputs": [
        {
          "internalType": "uint8",
          "name": "",
          "type": "uint8"
        }
      ],
      "payable": false,
      "stateMutability": "view",
      "type": "function"
    },
    {
      "constant": true,
      "inputs": [],
      "name": "name",
      "outputs": [
        {
          "internalType": "string",
          "name": "",
          "type": "string"
        }
      ],
      "payable": false,
      "stateMutability": "view",
      "type": "function"
    },
    {
      "constant": true,
      "inputs": [],
      "name": "newOwner",
      "outputs": [
        {
          "internalType": "address",
          "name": "",
          "type": "address"
        }
      ],
      "payable": false,
      "stateMutability": "view",
      "type": "function"
    },
    {
      "constant": true,
      "inputs": [],
      "name": "owner",
      "outputs": [
        {
          "internalType": "address",
          "name": "",
          "type": "address"
        }
      ],
      "payable": false,
      "stateMutability": "view",
      "type": "function"
    },
    {
      "constant": true,
      "inputs": [],
      "name": "symbol",
      "outputs": [
        {
          "internalType": "string",
          "name": "",
          "type": "string"
        }
      ],
      "payable": false,
      "stateMutability": "view",
      "type": "function"
    },
    {
      "constant": true,
      "inputs": [],
      "name": "totalSupply",
      "outputs": [
        {
          "internalType": "uint256",
          "name": "",
          "type": "uint256"
        }
      ],
      "payable": false,
      "stateMutability": "view",
      "type": "function"
    },
    {
      "constant": false,
      "inputs": [
        {
          "internalType": "address",
          "name": "to",
          "type": "address"
        },
        {
          "internalType": "uint256",
          "name": "tokens",
          "type": "uint256"
        }
      ],
      "name": "transfer",
      "outputs": [
        {
          "internalType": "bool",
          "name": "success",
          "type": "bool"
        }
      ],
      "payable": false,
      "stateMutability": "nonpayable",
      "type": "function"
    },
    {
      "constant": false,
      "inputs": [
        {
          "internalType": "address",
          "name": "tokenAddress",
          "type": "address"
        },
        {
          "internalType": "uint256",
          "name": "tokens",
          "type": "uint256"
        }
      ],
      "name": "transferAnyERC20Token",
      "outputs": [
        {
          "internalType": "bool",
          "name": "success",
          "type": "bool"
        }
      ],
      "payable": false,
      "stateMutability": "nonpayable",
      "type": "function"
    },
    {
      "constant": false,
      "inputs": [
        {
          "internalType": "address",
          "name": "from",
          "type": "address"
        },
        {
          "internalType": "address",
          "name": "to",
          "type": "address"
        },
        {
          "internalType": "uint256",
          "name": "tokens",
          "type": "uint256"
        }
      ],
      "name": "transferFrom",
      "outputs": [
        {
          "internalType": "bool",
          "name": "success",
          "type": "bool"
        }
      ],
      "payable": false,
      "stateMutability": "nonpayable",
      "type": "function"
    },
    {
      "constant": false,
      "inputs": [
        {
          "internalType": "address",
          "name": "_newOwner",
          "type": "address"
        }
      ],
      "name": "transferOwnership",
      "outputs": [],
      "payable": false,
      "stateMutability": "nonpayable",
      "type": "function"
    }
  ],
  "bytecode": "0x60806040523480156200001157600080fd5b50600080546001600160a01b0319163317905560408051808201909152600580825264119256115160da1b60209092019182526200005291600291620001d6565b5060408051808201909152601a8082527f4578616d706c6520466978656420537570706c7920546f6b656e00000000000060209092019182526200009991600391620001d6565b5060048054601260ff19909116179081905560ff16600a0a620f4240026005819055600080546001600160a01b03908116825260066020908152604080842085905583548151958652905192169360008051602062000df6833981519152929081900390910190a36040805180820190915260038082526212519560ea1b60209092019182526200012d91600291620001d6565b506040805180820190915260118082527024b73b32b9ba10233ab732102a37b5b2b760791b60209092019182526200016891600391620001d6565b5060048054601260ff19909116179081905560ff16600a0a620f4240026005819055600080546001600160a01b03908116825260066020908152604080842085905583548151958652905192169360008051602062000df6833981519152929081900390910190a36200027b565b828054600181600116156101000203166002900490600052602060002090601f016020900481019282601f106200021957805160ff191683800117855562000249565b8280016001018555821562000249579182015b82811115620002495782518255916020019190600101906200022c565b50620002579291506200025b565b5090565b6200027891905b8082111562000257576000815560010162000262565b90565b610b6b806200028b6000396000f3fe6080604052600436106100f35760003560e01c80638da5cb5b1161008a578063d4ee1d9011610059578063d4ee1d901461040a578063dc39d06d1461041f578063dd62ed3e14610458578063f2fde38b14610493576100f3565b80638da5cb5b146102c357806395d89b41146102f4578063a9059cbb14610309578063cae9ca5114610342576100f3565b8063313ce567116100c6578063313ce567146102395780633eaaf86b1461026457806370a082311461027957806379ba5097146102ac576100f3565b806306fdde03146100f8578063095ea7b31461018257806318160ddd146101cf57806323b872dd146101f6575b600080fd5b34801561010457600080fd5b5061010d6104c6565b6040805160208082528351818301528351919283929083019185019080838360005b8381101561014757818101518382015260200161012f565b50505050905090810190601f1680156101745780820380516001836020036101000a031916815260200191505b509250505060405180910390f35b34801561018e57600080fd5b506101bb600480360360408110156101a557600080fd5b506001600160a01b038135169060200135610554565b604080519115158252519081900360200190f35b3480156101db57600080fd5b506101e46105bb565b60408051918252519081900360200190f35b34801561020257600080fd5b506101bb6004803603606081101561021957600080fd5b506001600160a01b038135811691602081013590911690604001356105ed565b34801561024557600080fd5b5061024e6106f8565b6040805160ff9092168252519081900360200190f35b34801561027057600080fd5b506101e4610701565b34801561028557600080fd5b506101e46004803603602081101561029c57600080fd5b50356001600160a01b0316610707565b3480156102b857600080fd5b506102c1610722565b005b3480156102cf57600080fd5b506102d861079d565b604080516001600160a01b039092168252519081900360200190f35b34801561030057600080fd5b5061010d6107ac565b34801561031557600080fd5b506101bb6004803603604081101561032c57600080fd5b506001600160a01b038135169060200135610804565b34801561034e57600080fd5b506101bb6004803603606081101561036557600080fd5b6001600160a01b038235169160208101359181019060608101604082013564010000000081111561039557600080fd5b8201836020820111156103a757600080fd5b803590602001918460018302840111640100000000831117156103c957600080fd5b91908080601f0160208091040260200160405190810160405280939291908181526020018383808284376000920191909152509295506108b4945050505050565b34801561041657600080fd5b506102d86109fc565b34801561042b57600080fd5b506101bb6004803603604081101561044257600080fd5b506001600160a01b038135169060200135610a0b565b34801561046457600080fd5b506101e46004803603604081101561047b57600080fd5b506001600160a01b0381358116916020013516610aad565b34801561049f57600080fd5b506102c1600480360360208110156104b657600080fd5b50356001600160a01b0316610ad8565b6003805460408051602060026001851615610100026000190190941693909304601f8101849004840282018401909252818152929183018282801561054c5780601f106105215761010080835404028352916020019161054c565b820191906000526020600020905b81548152906001019060200180831161052f57829003601f168201915b505050505081565b3360008181526007602090815260408083206001600160a01b038716808552908352818420869055815186815291519394909390927f8c5be1e5ebec7d5bd14f71427d1e84f3dd0314c0f7b2291e5b200ac8c7c3b925928290030190a35060015b92915050565b6000805260066020527f54cdd369e4e8a8515e52ca72ec816c2101831ad1f18bf44102ed171459c9b4f8546005540390565b6001600160a01b038316600090815260066020526040812054610616908363ffffffff610b1116565b6001600160a01b0385166000908152600660209081526040808320939093556007815282822033835290522054610653908363ffffffff610b1116565b6001600160a01b038086166000908152600760209081526040808320338452825280832094909455918616815260069091522054610697908363ffffffff610b2616565b6001600160a01b0380851660008181526006602090815260409182902094909455805186815290519193928816927fddf252ad1be2c89b69c2b068fc378daa952ba7f163c4a11628f55a4df523b3ef92918290030190a35060019392505050565b60045460ff1681565b60055481565b6001600160a01b031660009081526006602052604090205490565b6001546001600160a01b0316331461073957600080fd5b600154600080546040516001600160a01b0393841693909116917f8be0079c531659141344cd1fd0a4f28419497f9722a3daafe3b4186f6b6457e091a360018054600080546001600160a01b03199081166001600160a01b03841617909155169055565b6000546001600160a01b031681565b6002805460408051602060018416156101000260001901909316849004601f8101849004840282018401909252818152929183018282801561054c5780601f106105215761010080835404028352916020019161054c565b33600090815260066020526040812054610824908363ffffffff610b1116565b33600090815260066020526040808220929092556001600160a01b03851681522054610856908363ffffffff610b2616565b6001600160a01b0384166000818152600660209081526040918290209390935580518581529051919233927fddf252ad1be2c89b69c2b068fc378daa952ba7f163c4a11628f55a4df523b3ef9281900390910190a350600192915050565b3360008181526007602090815260408083206001600160a01b038816808552908352818420879055815187815291519394909390927f8c5be1e5ebec7d5bd14f71427d1e84f3dd0314c0f7b2291e5b200ac8c7c3b925928290030190a3604051638f4ffcb160e01b815233600482018181526024830186905230604484018190526080606485019081528651608486015286516001600160a01b038a1695638f4ffcb195948a94938a939192909160a490910190602085019080838360005b8381101561098b578181015183820152602001610973565b50505050905090810190601f1680156109b85780820380516001836020036101000a031916815260200191505b5095505050505050600060405180830381600087803b1580156109da57600080fd5b505af11580156109ee573d6000803e3d6000fd5b506001979650505050505050565b6001546001600160a01b031681565b600080546001600160a01b03163314610a2357600080fd5b600080546040805163a9059cbb60e01b81526001600160a01b0392831660048201526024810186905290519186169263a9059cbb926044808401936020939083900390910190829087803b158015610a7a57600080fd5b505af1158015610a8e573d6000803e3d6000fd5b505050506040513d6020811015610aa457600080fd5b50519392505050565b6001600160a01b03918216600090815260076020908152604080832093909416825291909152205490565b6000546001600160a01b03163314610aef57600080fd5b600180546001600160a01b0319166001600160a01b0392909216919091179055565b600082821115610b2057600080fd5b50900390565b818101828110156105b557600080fdfea265627a7a72315820c8f569574ee4a4ce7a85ba04f647055bb236388163841ae292a32914f8ec902964736f6c63430005100032ddf252ad1be2c89b69c2b068fc378daa952ba7f163c4a11628f55a4df523b3ef",
  "source": "pragma solidity >=0.5.16 <0.7.0;\r\n\r\nimport './ERC20.sol';\r\n\r\n// ----------------------------------------------------------------------------\r\n// Invest Fund Token, IFT\r\n// ----------------------------------------------------------------------------\r\n\r\ncontract IFT is FixedSupplyToken {\r\n  using SafeMath for uint;\r\n  // ------------------------------------------------------------------------\r\n  // Constructor\r\n  // ------------------------------------------------------------------------\r\n  constructor() public {\r\n      symbol = \"IFT\";\r\n      name = \"Invest Fund Token\";\r\n      decimals = 18;\r\n      _totalSupply = 1000000 * 10**uint(decimals); //1.000.000\r\n      balances[owner] = _totalSupply;\r\n      emit Transfer(address(0), owner, _totalSupply);\r\n  }\r\n}",
  "sourcePath": "C:/Users/LuisM/Desktop/temp/Jobs/project-tkn/contracts/IFT.sol",
  "compiler": {
    "name": "solc",
    "version": "0.5.16+commit.9c3226ce.Emscripten.clang"
  },
  "schemaVersion": "3.2.3",
  "updatedAt": "2020-08-11T15:50:45.411Z",
  "networkType": "ethereum",
  "devdoc": {
    "methods": {}
  },
  "userdoc": {
    "methods": {}
  }
}