{
  "contractName": "IFT",
  "abi": [
    {
      "inputs": [],
      "payable": false,
      "stateMutability": "nonpayable",
      "type": "constructor"
    },
    {
      "anonymous": false,
      "inputs": [
        {
          "indexed": true,
          "internalType": "address",
          "name": "tokenOwner",
          "type": "address"
        },
        {
          "indexed": true,
          "internalType": "address",
          "name": "spender",
          "type": "address"
        },
        {
          "indexed": false,
          "internalType": "uint256",
          "name": "tokens",
          "type": "uint256"
        },
        {
          "indexed": false,
          "internalType": "uint16",
          "name": "_birthday",
          "type": "uint16"
        }
      ],
      "name": "Approval",
      "type": "event"
    },
    {
      "anonymous": false,
      "inputs": [
        {
          "indexed": false,
          "internalType": "uint16",
          "name": "",
          "type": "uint16"
        }
      ],
      "name": "CreateBound",
      "type": "event"
    },
    {
      "anonymous": false,
      "inputs": [
        {
          "indexed": true,
          "internalType": "address",
          "name": "_from",
          "type": "address"
        },
        {
          "indexed": true,
          "internalType": "address",
          "name": "_to",
          "type": "address"
        }
      ],
      "name": "OwnershipTransferred",
      "type": "event"
    },
    {
      "anonymous": false,
      "inputs": [
        {
          "indexed": false,
          "internalType": "address",
          "name": "",
          "type": "address"
        },
        {
          "indexed": false,
          "internalType": "uint256",
          "name": "",
          "type": "uint256"
        },
        {
          "indexed": false,
          "internalType": "uint16",
          "name": "",
          "type": "uint16"
        }
      ],
      "name": "Received",
      "type": "event"
    },
    {
      "anonymous": false,
      "inputs": [
        {
          "indexed": true,
          "internalType": "address",
          "name": "from",
          "type": "address"
        },
        {
          "indexed": true,
          "internalType": "address",
          "name": "to",
          "type": "address"
        },
        {
          "indexed": false,
          "internalType": "uint256",
          "name": "tokens",
          "type": "uint256"
        },
        {
          "indexed": false,
          "internalType": "uint16",
          "name": "_birthday",
          "type": "uint16"
        }
      ],
      "name": "Transfer",
      "type": "event"
    },
    {
      "anonymous": false,
      "inputs": [
        {
          "indexed": false,
          "internalType": "int32",
          "name": "",
          "type": "int32"
        }
      ],
      "name": "UpdateFee",
      "type": "event"
    },
    {
      "anonymous": false,
      "inputs": [
        {
          "indexed": false,
          "internalType": "int32",
          "name": "",
          "type": "int32"
        }
      ],
      "name": "UpdateIndex",
      "type": "event"
    },
    {
      "anonymous": false,
      "inputs": [
        {
          "indexed": false,
          "internalType": "address",
          "name": "",
          "type": "address"
        },
        {
          "indexed": false,
          "internalType": "uint256",
          "name": "",
          "type": "uint256"
        }
      ],
      "name": "Withdraw",
      "type": "event"
    },
    {
      "payable": true,
      "stateMutability": "payable",
      "type": "fallback"
    },
    {
      "constant": true,
      "inputs": [
        {
          "internalType": "uint16",
          "name": "",
          "type": "uint16"
        }
      ],
      "name": "_totalSupply",
      "outputs": [
        {
          "internalType": "uint256",
          "name": "",
          "type": "uint256"
        }
      ],
      "payable": false,
      "stateMutability": "view",
      "type": "function"
    },
    {
      "constant": false,
      "inputs": [],
      "name": "acceptOwnership",
      "outputs": [],
      "payable": false,
      "stateMutability": "nonpayable",
      "type": "function"
    },
    {
      "constant": true,
      "inputs": [],
      "name": "adminFee",
      "outputs": [
        {
          "internalType": "int32",
          "name": "",
          "type": "int32"
        }
      ],
      "payable": false,
      "stateMutability": "view",
      "type": "function"
    },
    {
      "constant": true,
      "inputs": [
        {
          "internalType": "address",
          "name": "tokenOwner",
          "type": "address"
        },
        {
          "internalType": "address",
          "name": "spender",
          "type": "address"
        },
        {
          "internalType": "uint16",
          "name": "_birthday",
          "type": "uint16"
        }
      ],
      "name": "allowance",
      "outputs": [
        {
          "internalType": "uint256",
          "name": "remaining",
          "type": "uint256"
        }
      ],
      "payable": false,
      "stateMutability": "view",
      "type": "function"
    },
    {
      "constant": false,
      "inputs": [
        {
          "internalType": "address",
          "name": "spender",
          "type": "address"
        },
        {
          "internalType": "uint256",
          "name": "tokens",
          "type": "uint256"
        },
        {
          "internalType": "uint16",
          "name": "_birthday",
          "type": "uint16"
        }
      ],
      "name": "approve",
      "outputs": [
        {
          "internalType": "bool",
          "name": "success",
          "type": "bool"
        }
      ],
      "payable": false,
      "stateMutability": "nonpayable",
      "type": "function"
    },
    {
      "constant": false,
      "inputs": [
        {
          "internalType": "address",
          "name": "spender",
          "type": "address"
        },
        {
          "internalType": "uint256",
          "name": "tokens",
          "type": "uint256"
        },
        {
          "internalType": "bytes",
          "name": "data",
          "type": "bytes"
        },
        {
          "internalType": "uint16",
          "name": "_birthday",
          "type": "uint16"
        }
      ],
      "name": "approveAndCall",
      "outputs": [
        {
          "internalType": "bool",
          "name": "success",
          "type": "bool"
        }
      ],
      "payable": false,
      "stateMutability": "nonpayable",
      "type": "function"
    },
    {
      "constant": true,
      "inputs": [
        {
          "internalType": "address",
          "name": "tokenOwner",
          "type": "address"
        },
        {
          "internalType": "uint16",
          "name": "_birthday",
          "type": "uint16"
        }
      ],
      "name": "balanceOf",
      "outputs": [
        {
          "internalType": "uint256",
          "name": "balance",
          "type": "uint256"
        }
      ],
      "payable": false,
      "stateMutability": "view",
      "type": "function"
    },
    {
      "constant": true,
      "inputs": [
        {
          "internalType": "uint16",
          "name": "",
          "type": "uint16"
        }
      ],
      "name": "bounds",
      "outputs": [
        {
          "internalType": "int32",
          "name": "preIndex",
          "type": "int32"
        },
        {
          "internalType": "int32",
          "name": "posIndex",
          "type": "int32"
        },
        {
          "internalType": "int32",
          "name": "curIndex",
          "type": "int32"
        },
        {
          "internalType": "uint256",
          "name": "nextPreIndexUpdate",
          "type": "uint256"
        },
        {
          "internalType": "uint256",
          "name": "nextPosIndexUpdate",
          "type": "uint256"
        }
      ],
      "payable": false,
      "stateMutability": "view",
      "type": "function"
    },
    {
      "constant": true,
      "inputs": [],
      "name": "currentMonth",
      "outputs": [
        {
          "internalType": "uint16",
          "name": "",
          "type": "uint16"
        }
      ],
      "payable": false,
      "stateMutability": "view",
      "type": "function"
    },
    {
      "constant": true,
      "inputs": [],
      "name": "lastBoundEmition",
      "outputs": [
        {
          "internalType": "uint256",
          "name": "",
          "type": "uint256"
        }
      ],
      "payable": false,
      "stateMutability": "view",
      "type": "function"
    },
    {
      "constant": true,
      "inputs": [],
      "name": "name",
      "outputs": [
        {
          "internalType": "string",
          "name": "",
          "type": "string"
        }
      ],
      "payable": false,
      "stateMutability": "view",
      "type": "function"
    },
    {
      "constant": true,
      "inputs": [],
      "name": "newOwner",
      "outputs": [
        {
          "internalType": "address",
          "name": "",
          "type": "address"
        }
      ],
      "payable": false,
      "stateMutability": "view",
      "type": "function"
    },
    {
      "constant": true,
      "inputs": [],
      "name": "owner",
      "outputs": [
        {
          "internalType": "address",
          "name": "",
          "type": "address"
        }
      ],
      "payable": false,
      "stateMutability": "view",
      "type": "function"
    },
    {
      "constant": true,
      "inputs": [],
      "name": "programmerAddr",
      "outputs": [
        {
          "internalType": "address payable",
          "name": "",
          "type": "address"
        }
      ],
      "payable": false,
      "stateMutability": "view",
      "type": "function"
    },
    {
      "constant": true,
      "inputs": [],
      "name": "symbol",
      "outputs": [
        {
          "internalType": "string",
          "name": "",
          "type": "string"
        }
      ],
      "payable": false,
      "stateMutability": "view",
      "type": "function"
    },
    {
      "constant": true,
      "inputs": [
        {
          "internalType": "uint16",
          "name": "_birthday",
          "type": "uint16"
        }
      ],
      "name": "totalSupply",
      "outputs": [
        {
          "internalType": "uint256",
          "name": "",
          "type": "uint256"
        }
      ],
      "payable": false,
      "stateMutability": "view",
      "type": "function"
    },
    {
      "constant": false,
      "inputs": [
        {
          "internalType": "address",
          "name": "from",
          "type": "address"
        },
        {
          "internalType": "address",
          "name": "to",
          "type": "address"
        },
        {
          "internalType": "uint256",
          "name": "tokens",
          "type": "uint256"
        },
        {
          "internalType": "uint16",
          "name": "_birthday",
          "type": "uint16"
        }
      ],
      "name": "transferFrom",
      "outputs": [
        {
          "internalType": "bool",
          "name": "success",
          "type": "bool"
        }
      ],
      "payable": false,
      "stateMutability": "nonpayable",
      "type": "function"
    },
    {
      "constant": false,
      "inputs": [
        {
          "internalType": "address",
          "name": "_newOwner",
          "type": "address"
        }
      ],
      "name": "transferOwnership",
      "outputs": [],
      "payable": false,
      "stateMutability": "nonpayable",
      "type": "function"
    },
    {
      "constant": false,
      "inputs": [
        {
          "internalType": "int32",
          "name": "_preIndex",
          "type": "int32"
        }
      ],
      "name": "createBound",
      "outputs": [],
      "payable": false,
      "stateMutability": "nonpayable",
      "type": "function"
    },
    {
      "constant": false,
      "inputs": [
        {
          "internalType": "int32",
          "name": "_newPreIndex",
          "type": "int32"
        },
        {
          "internalType": "uint16",
          "name": "_birthday",
          "type": "uint16"
        }
      ],
      "name": "updatePreIndex",
      "outputs": [],
      "payable": false,
      "stateMutability": "nonpayable",
      "type": "function"
    },
    {
      "constant": false,
      "inputs": [
        {
          "internalType": "int32",
          "name": "_newPosIndex",
          "type": "int32"
        },
        {
          "internalType": "uint16",
          "name": "_birthday",
          "type": "uint16"
        }
      ],
      "name": "updatePosIndex",
      "outputs": [],
      "payable": false,
      "stateMutability": "nonpayable",
      "type": "function"
    },
    {
      "constant": false,
      "inputs": [
        {
          "internalType": "int32",
          "name": "_newFee",
          "type": "int32"
        }
      ],
      "name": "updateFees",
      "outputs": [],
      "payable": false,
      "stateMutability": "nonpayable",
      "type": "function"
    },
    {
      "constant": true,
      "inputs": [
        {
          "internalType": "uint256",
          "name": "_tokens",
          "type": "uint256"
        },
        {
          "internalType": "uint16",
          "name": "_birthday",
          "type": "uint16"
        }
      ],
      "name": "estimateProfit",
      "outputs": [
        {
          "internalType": "uint256",
          "name": "profit",
          "type": "uint256"
        }
      ],
      "payable": false,
      "stateMutability": "view",
      "type": "function"
    },
    {
      "constant": false,
      "inputs": [
        {
          "internalType": "uint256",
          "name": "_tokens",
          "type": "uint256"
        },
        {
          "internalType": "uint16",
          "name": "_birthday",
          "type": "uint16"
        }
      ],
      "name": "clientWithdraw",
      "outputs": [],
      "payable": false,
      "stateMutability": "nonpayable",
      "type": "function"
    },
    {
      "constant": false,
      "inputs": [
        {
          "internalType": "address",
          "name": "_to",
          "type": "address"
        },
        {
          "internalType": "uint256",
          "name": "_tokens",
          "type": "uint256"
        },
        {
          "internalType": "uint16",
          "name": "_birthday",
          "type": "uint16"
        }
      ],
      "name": "transfer",
      "outputs": [
        {
          "internalType": "bool",
          "name": "",
          "type": "bool"
        }
      ],
      "payable": false,
      "stateMutability": "nonpayable",
      "type": "function"
    },
    {
      "constant": false,
      "inputs": [
        {
          "internalType": "uint256",
          "name": "_amount",
          "type": "uint256"
        }
      ],
      "name": "ownerWithdrawEth",
      "outputs": [],
      "payable": false,
      "stateMutability": "nonpayable",
      "type": "function"
    }
  ],
  "bytecode": "0x60806040523480156200001157600080fd5b50600080546001600160a01b0319163317905560408051808201909152600580825264119256115160da1b6020909201918252620000529160029162000134565b5060408051808201909152601a8082527f4578616d706c6520466978656420537570706c7920546f6b656e0000000000006020909201918252620000999160039162000134565b506040805180820190915260038082526212519560ea1b6020909201918252620000c69160029162000134565b506040805180820190915260118082527024b73b32b9ba10233ab732102a37b5b2b760791b6020909201918252620001019160039162000134565b5060078054600060085565ffffffffffff19169055612710600b55600980546001600160a01b03191633179055620001d9565b828054600181600116156101000203166002900490600052602060002090601f016020900481019282601f106200017757805160ff1916838001178555620001a7565b82800160010185558215620001a7579182015b82811115620001a75782518255916020019190600101906200018a565b50620001b5929150620001b9565b5090565b620001d691905b80821115620001b55760008155600101620001c0565b90565b6115ff80620001e96000396000f3fe6080604052600436106101815760003560e01c80638da5cb5b116100d1578063b2619c591161008a578063d4ee1d9011610064578063d4ee1d90146107e8578063d639aebb146107fd578063e1cbef0c1461082b578063f2fde38b1461086e57610181565b8063b2619c5914610743578063c051759414610786578063c866b8de146107b457610181565b80638da5cb5b1461061857806395d89b411461062d5780639e5576e714610642578063a0be06f91461067f578063a2ceb089146106ad578063aa9a4665146106fb57610181565b80635425bf361161013e578063717cd32811610118578063717cd3281461054257806379ba5097146105aa5780637fd957c4146105bf578063862a4d47146105ec57610181565b80635425bf36146104ad5780635d09b33e146104e457806361acb3cd1461051157610181565b80630478d90b1461028357806306fdde03146102bc57806329f5928214610346578063381eadcb14610428578063478d6b89146104525780635326496814610486575b60075461ffff1661019157600080fd5b33600090815260056020908152604080832060075460001961ffff9182160116845290915290205434906101cb908263ffffffff6108a116565b3360009081526005602090815260408083206007805460001961ffff91821681018216875292855283862096909655548516019093168252600490522054610219908263ffffffff6108a116565b6007805460001961ffff9182168101821660009081526004602090815260409182902095909555925483513381529485018690528216011682820152517f81ba9c6a422e14ec80170288f5d9b0671fde08ad257771997fcd16d914ae7f0c9181900360600190a150005b34801561028f57600080fd5b506102ba600480360360408110156102a657600080fd5b50803560030b906020013561ffff166108b7565b005b3480156102c857600080fd5b506102d16109be565b6040805160208082528351818301528351919283929083019185019080838360005b8381101561030b5781810151838201526020016102f3565b50505050905090810190601f1680156103385780820380516001836020036101000a031916815260200191505b509250505060405180910390f35b34801561035257600080fd5b506104146004803603608081101561036957600080fd5b6001600160a01b038235169160208101359181019060608101604082013564010000000081111561039957600080fd5b8201836020820111156103ab57600080fd5b803590602001918460018302840111640100000000831117156103cd57600080fd5b91908080601f0160208091040260200160405190810160405280939291908181526020018383808284376000920191909152509295505050903561ffff169150610a4c9050565b604080519115158252519081900360200190f35b34801561043457600080fd5b506102ba6004803603602081101561044b57600080fd5b5035610ba8565b34801561045e57600080fd5b506102ba6004803603604081101561047557600080fd5b508035906020013561ffff16610c8b565b34801561049257600080fd5b5061049b610d74565b60408051918252519081900360200190f35b3480156104b957600080fd5b506102ba600480360360408110156104d057600080fd5b50803560030b906020013561ffff16610d7a565b3480156104f057600080fd5b506102ba6004803603602081101561050757600080fd5b503560030b610e37565b34801561051d57600080fd5b50610526610f7b565b604080516001600160a01b039092168252519081900360200190f35b34801561054e57600080fd5b506105706004803603602081101561056557600080fd5b503561ffff16610f8a565b60408051600396870b870b815294860b860b602086015292850b90940b838301526060830152608082019290925290519081900360a00190f35b3480156105b657600080fd5b506102ba610fc4565b3480156105cb57600080fd5b506102ba600480360360208110156105e257600080fd5b503560030b61103f565b3480156105f857600080fd5b506106016110e3565b6040805161ffff9092168252519081900360200190f35b34801561062457600080fd5b506105266110ed565b34801561063957600080fd5b506102d16110fc565b34801561064e57600080fd5b5061049b6004803603604081101561066557600080fd5b5080356001600160a01b0316906020013561ffff16611154565b34801561068b57600080fd5b50610694611182565b60408051600392830b90920b8252519081900360200190f35b3480156106b957600080fd5b50610414600480360360808110156106d057600080fd5b5080356001600160a01b03908116916020810135909116906040810135906060013561ffff16611191565b34801561070757600080fd5b5061049b6004803603606081101561071e57600080fd5b5080356001600160a01b03908116916020810135909116906040013561ffff166112f5565b34801561074f57600080fd5b506104146004803603606081101561076657600080fd5b5080356001600160a01b0316906020810135906040013561ffff1661132d565b34801561079257600080fd5b5061049b600480360360208110156107a957600080fd5b503561ffff16611366565b3480156107c057600080fd5b5061049b600480360360408110156107d757600080fd5b508035906020013561ffff16611378565b3480156107f457600080fd5b506105266113bf565b34801561080957600080fd5b5061049b6004803603602081101561082057600080fd5b503561ffff166113ce565b34801561083757600080fd5b506104146004803603606081101561084e57600080fd5b5080356001600160a01b0316906020810135906040013561ffff16611410565b34801561087a57600080fd5b506102ba6004803603602081101561089157600080fd5b50356001600160a01b031661148a565b818101828110156108b157600080fd5b92915050565b6000546001600160a01b031633146108ce57600080fd5b61ffff81166000908152600a602052604090206001015442116108f057600080fd5b61ffff81166000908152600a6020526040902054600381810b916401000000009004810b9081810b9083900b136109275780610929565b815b61ffff84166000908152600a6020908152604091829020805463ffffffff60401b1916600160401b600395860b63ffffffff908116919091029190911763ffffffff191689860b918216178255426301e13380016001909201919091558251930b835290517f49b04eadd1d86834e29954956117de764b79e3e76b568ff4ebd35db0ebcb40079281900390910190a150505050565b6003805460408051602060026001851615610100026000190190941693909304601f81018490048402820184019092528181529291830182828015610a445780601f10610a1957610100808354040283529160200191610a44565b820191906000526020600020905b815481529060010190602001808311610a2757829003601f168201915b505050505081565b3360008181526006602090815260408083206001600160a01b03891680855290835281842061ffff871680865290845282852089905582518981529384015281519394909390927f03f64f28b3a9476b8d63bd9ecee7f40f901f0eea16af02c54a8deae4437e446992908290030190a3604051638f4ffcb160e01b815233600482018181526024830187905230604484018190526080606485019081528751608486015287516001600160a01b038b1695638f4ffcb195948b94938b939192909160a490910190602085019080838360005b83811015610b36578181015183820152602001610b1e565b50505050905090810190601f168015610b635780820380516001836020036101000a031916815260200191505b5095505050505050600060405180830381600087803b158015610b8557600080fd5b505af1158015610b99573d6000803e3d6000fd5b50600198975050505050505050565b6000546001600160a01b03163314610bbf57600080fd5b80471015610bcc57600080fd5b606460638202046000610bdf83836114c3565b604051909150339083156108fc029084906000818181858888f19350505050158015610c0f573d6000803e3d6000fd5b506009546040516001600160a01b039091169082156108fc029083906000818181858888f19350505050158015610c4a573d6000803e3d6000fd5b50604080513381526020810185905281517f884edad9ce6fa2440d8a54cc123490eb96d2768479d49ff9c7366125a9424364929181900390910190a1505050565b600b5460075460009190620100009004600390810b900b8103840281610cad57fe5b33600090815260056020908152604080832061ffff881684529091529020549190049150811115610cdd57600080fd5b6000610ce98284611378565b905080471015610cf857600080fd5b610d04600085856114d8565b50604051339082156108fc029083906000818181858888f19350505050158015610d32573d6000803e3d6000fd5b50604080513381526020810183905281517f884edad9ce6fa2440d8a54cc123490eb96d2768479d49ff9c7366125a9424364929181900390910190a150505050565b60085481565b6000546001600160a01b03163314610d9157600080fd5b61ffff81166000908152600a60205260409020600201544211610db357600080fd5b61ffff81166000908152600a60209081526040918290208054600386810b63ffffffff81166401000000000267ffffffff000000001990931692909217835562278d0042016002909301929092558351910b815291517f49b04eadd1d86834e29954956117de764b79e3e76b568ff4ebd35db0ebcb40079281900390910190a15050565b6000546001600160a01b03163314610e4e57600080fd5b60085462278d00014211610e6157600080fd5b6040805160a081018252600383810b8252600060208084018281528486018381526301e13380429081016060880181815262278d00830160808a018181526007805461ffff9081168b52600a8a52998d90209b518c54985197518c0b63ffffffff908116600160401b0263ffffffff60401b19998e0b82166401000000000267ffffffff000000001993909e0b90911663ffffffff19909a1699909917169a909a17959095169590951789555160018981019190915592516002909801979097558554808616909201851661ffff19909216919091179485905560085585519390921683529351929390927f5288ff97e01cf765c7c69239da2c853d8c2ae785d0e02e5022a42b84b326f58c9281900390910190a1505050565b6009546001600160a01b031681565b600a60205260009081526040902080546001820154600290920154600382810b936401000000008404820b93600160401b900490910b9185565b6001546001600160a01b03163314610fdb57600080fd5b600154600080546040516001600160a01b0393841693909116917f8be0079c531659141344cd1fd0a4f28419497f9722a3daafe3b4186f6b6457e091a360018054600080546001600160a01b03199081166001600160a01b03841617909155169055565b6000546001600160a01b0316331461105657600080fd5b600b546000190260030b8160030b1215801561107a5750600b5460030b8160030b13155b61108357600080fd5b60078054600383810b63ffffffff8116620100000265ffffffff00001990931692909217909255604080519190920b815290517fec44d2ede75847345835e9c9c55a34db9be8025aaa380163d1ecfe3b10284b3a9181900360200190a150565b60075461ffff1681565b6000546001600160a01b031681565b6002805460408051602060018416156101000260001901909316849004601f81018490048402820184019092528181529291830182828015610a445780601f10610a1957610100808354040283529160200191610a44565b6001600160a01b038216600090815260056020908152604080832061ffff8516845290915290205492915050565b60075462010000900460030b81565b6001600160a01b038416600090815260056020908152604080832061ffff851684529091528120546111c9908463ffffffff6114c316565b6001600160a01b038616600081815260056020908152604080832061ffff88168085529083528184209590955592825260068152828220338352815282822093825292909252902054611222908463ffffffff6114c316565b6001600160a01b038087166000908152600660209081526040808320338452825280832061ffff8816808552908352818420959095559288168252600581528282209382529290925290205461127e908463ffffffff6108a116565b6001600160a01b03808616600081815260056020908152604080832061ffff8916808552908352928190209590955584518881529081019190915283519193928916927f06c5024751126e95c0eff0ab58d76b43e50177ac5d43acfb6a690813b0cc276a92918290030190a3506001949350505050565b6001600160a01b03928316600090815260066020908152604080832094909516825292835283812061ffff9290921681529152205490565b60006001600160a01b03841630141561134f5761134a8383610c8b565b61135c565b61135a8484846114d8565b505b5060019392505050565b60046020526000908152604090205481565b600b5461ffff82166000908152600a6020819052604082205491929091600160401b9004600390810b900b8502816113ac57fe5b04816113b457fe5b048301905092915050565b6001546001600160a01b031681565b61ffff1660009081527f05b8ccbb9d4d8fb16ea74ce3c29a41f1b461fbdaff4714a0d9a8eb05499746bc60209081526040808320546004909252909120540390565b3360008181526006602090815260408083206001600160a01b03881680855290835281842061ffff871680865290845282852088905582518881529384015281519394909390927f03f64f28b3a9476b8d63bd9ecee7f40f901f0eea16af02c54a8deae4437e446992908290030190a35060019392505050565b6000546001600160a01b031633146114a157600080fd5b600180546001600160a01b0319166001600160a01b0392909216919091179055565b6000828211156114d257600080fd5b50900390565b33600090815260056020908152604080832061ffff85168452909152812054611507908463ffffffff6114c316565b33600090815260056020818152604080842061ffff8816808652908352818520959095556001600160a01b0389168452918152818320938352929092522054611556908463ffffffff6108a116565b6001600160a01b038516600081815260056020908152604080832061ffff881680855290835292819020949094558351878152908101919091528251919233927f06c5024751126e95c0eff0ab58d76b43e50177ac5d43acfb6a690813b0cc276a9281900390910190a3506001939250505056fea265627a7a7231582090b0caaf473f60aceb3c4c01783a3761b452309dcd22591476fc90a6eae0e5ab64736f6c63430005110032",
  "source": "// SPDX-License-Identifier: MIT\r\npragma solidity ^0.5.16;\r\n\r\nimport './ERC1155.sol';\r\n\r\n// ----------------------------------------------------------------------------\r\n// Invest Fund Token, IFT\r\n// ----------------------------------------------------------------------------\r\n\r\ncontract IFT is ERC1155 {\r\n  using SafeMath for uint;\r\n\r\n  // Variveis globais\r\n  uint16 public currentMonth;\r\n  int32 public adminFee; // Preciso 0.01%\r\n  uint public lastBoundEmition;\r\n\r\n  // Endereo dos desenvolvedores\r\n  address payable public programmerAddr;\r\n\r\n  // Estrutura dos ativos\r\n  struct Bound {\r\n    int32 preIndex; // Indexador Pr - Preciso 0.01%\r\n    int32 posIndex; // Indexador Ps - Preciso 0.01%\r\n    int32 curIndex; // Indexador Atual - Preciso 0.01%\r\n    uint nextPreIndexUpdate; // Prxima atualizao taxa pr\r\n    uint nextPosIndexUpdate; // Prxima atualizao taxa ps\r\n  }\r\n\r\n  mapping(uint16 => Bound) public bounds; // Lista de bounds emitidas\r\n\r\n  uint private _precision; // Preciso das margens\r\n\r\n  event Received(address, uint, uint16);\r\n  event Withdraw(address, uint);\r\n  event UpdateIndex(int32);\r\n  event UpdateFee(int32);\r\n  event CreateBound(uint16);\r\n\r\n  // ------------------------------------------------------------------------\r\n  // Constructor\r\n  // ------------------------------------------------------------------------\r\n  \r\n  constructor() public {\r\n    symbol = 'IFT';\r\n    name = 'Invest Fund Token';\r\n    currentMonth = 0;\r\n    lastBoundEmition = 0;\r\n    adminFee = 0;\r\n    _precision = 10 ** 4; // 1 = 0.01%\r\n    // _programmerAddr = address(uint160(0x768A0d97a590A79791957EaCa3EEb2abaeBdd191));\r\n    programmerAddr = msg.sender;\r\n  }\r\n\r\n  modifier noCreateInLastMonth {\r\n    require(now > lastBoundEmition + (30 * 24 * 60 * 60));\r\n    _;\r\n  }\r\n\r\n  // ------------------------------------------------------------------------\r\n  // TAXAS DE CONTRATO\r\n  // Preindex e Posindex - preciso 1/10000 ou 0.01%\r\n  // ------------------------------------------------------------------------\r\n\r\n  function createBound(int32 _preIndex) public onlyOwner noCreateInLastMonth {\r\n    uint nextYear = now + (365 * 24 * 60 * 60); \r\n    uint nextMonth = now + (30 * 24 * 60 * 60);\r\n    bounds[currentMonth] = Bound(_preIndex, 0, 0, nextYear, nextMonth);\r\n    currentMonth += 1;\r\n    lastBoundEmition = now;\r\n    emit CreateBound(currentMonth);\r\n  }\r\n\r\n  function updatePreIndex(int32 _newPreIndex, uint16 _birthday) public onlyOwner {\r\n    require(now > bounds[_birthday].nextPreIndexUpdate);\r\n    int32 preIndex = bounds[_birthday].preIndex;\r\n    int32 posIndex = bounds[_birthday].posIndex;\r\n    bounds[_birthday].curIndex = (preIndex > posIndex) ? preIndex : posIndex;\r\n    bounds[_birthday].preIndex = _newPreIndex;\r\n    bounds[_birthday].nextPreIndexUpdate = now + (365 * 24 * 60 * 60);\r\n\r\n    emit UpdateIndex(_newPreIndex);\r\n  }\r\n\r\n  function updatePosIndex(int32 _newPosIndex, uint16 _birthday) public onlyOwner {\r\n    require(now > bounds[_birthday].nextPosIndexUpdate);\r\n    bounds[_birthday].posIndex = _newPosIndex;\r\n    bounds[_birthday].nextPosIndexUpdate = now + (30 * 24 * 60 * 60);\r\n\r\n    emit UpdateIndex(_newPosIndex);\r\n  }\r\n\r\n  function updateFees(int32 _newFee) public onlyOwner {\r\n    require( _newFee >= int32(_precision) * -1 && _newFee <= int32(_precision));\r\n    adminFee = _newFee;\r\n    emit UpdateFee(_newFee);\r\n  }\r\n\r\n  function estimateProfit(uint _tokens, uint16 _birthday) public view returns (uint profit) {\r\n    profit = _tokens + (_tokens * uint(bounds[_birthday].curIndex) / _precision / 10);\r\n  }\r\n\r\n  // ------------------------------------------------------------------------\r\n  // Permite o cliente sacar ETHs proporcionalmente  quantidade de IFTs\r\n  // enviadas ao contrato referente  taxa de juros definida pelo indexador\r\n  // ------------------------------------------------------------------------\r\n\r\n  function clientWithdraw(uint _tokens, uint16 _birthday) public {\r\n    uint _amount = ((_tokens * (_precision - uint(adminFee))) / _precision); \r\n\r\n    require(balances[msg.sender][_birthday] >= _amount);\r\n    uint amountEth = estimateProfit(_amount, _birthday);\r\n     \r\n    require(address(this).balance >= amountEth);\r\n\r\n    // Queima os ttulos enviados para o contrato\r\n    ERC1155.transfer(address(0), _tokens, _birthday);\r\n    msg.sender.transfer(amountEth);\r\n\r\n    emit Withdraw(msg.sender, amountEth);\r\n  }\r\n\r\n  // ------------------------------------------------------------------------\r\n  // Modificao da funo de transferncia padro para a cambiao\r\n  // IFT -> ETH.\r\n  // ------------------------------------------------------------------------\r\n\r\n  function transfer(address _to, uint _tokens, uint16 _birthday) public returns (bool) {\r\n    if(_to == address(this)) clientWithdraw(_tokens, _birthday);\r\n    else ERC1155.transfer(_to, _tokens, _birthday);\r\n    return true;\r\n  }\r\n\r\n  // Permite ao proprietrio do contrato, sacar Ethereum\r\n  function ownerWithdrawEth(uint _amount) public onlyOwner {\r\n    require( address(this).balance >= _amount );\r\n    // Calcula as margens\r\n    uint ownerShare = ((_amount * 99) / 100); // 99% do montante\r\n    uint programmerShare = _amount.sub(ownerShare); // 1% do montante (resto)\r\n\r\n    msg.sender.transfer(ownerShare);\r\n    programmerAddr.transfer(programmerShare);\r\n\r\n    emit Withdraw(msg.sender, _amount);\r\n  }\r\n\r\n  function () external payable {\r\n    require(currentMonth > 0);\r\n    uint tokens = msg.value;\r\n    balances[msg.sender][currentMonth - 1] = balances[msg.sender][currentMonth - 1].add(tokens);\r\n    _totalSupply[currentMonth - 1] = _totalSupply[currentMonth - 1].add(tokens);\r\n\r\n    emit Received(msg.sender, tokens, currentMonth - 1);\r\n  }\r\n}\r\n",
  "sourcePath": "C:\\Users\\LuisM\\Desktop\\temp\\Jobs\\project-tkn\\contracts\\IFT.sol",
  "compiler": {
    "name": "solc",
    "version": "0.5.17+commit.d19bba13.Emscripten.clang"
  },
  "schemaVersion": "3.2.3",
  "updatedAt": "2020-09-24T13:52:15.879Z",
  "networkType": "ethereum",
  "devdoc": {
    "methods": {}
  },
  "userdoc": {
    "methods": {}
  }
}