{
  "contractName": "IFT",
  "abi": [
    {
      "inputs": [],
      "payable": false,
      "stateMutability": "nonpayable",
      "type": "constructor"
    },
    {
      "anonymous": false,
      "inputs": [
        {
          "indexed": true,
          "internalType": "address",
          "name": "tokenOwner",
          "type": "address"
        },
        {
          "indexed": true,
          "internalType": "address",
          "name": "spender",
          "type": "address"
        },
        {
          "indexed": false,
          "internalType": "uint256",
          "name": "tokens",
          "type": "uint256"
        },
        {
          "indexed": false,
          "internalType": "uint16",
          "name": "_birthday",
          "type": "uint16"
        }
      ],
      "name": "Approval",
      "type": "event"
    },
    {
      "anonymous": false,
      "inputs": [
        {
          "indexed": true,
          "internalType": "address",
          "name": "_from",
          "type": "address"
        },
        {
          "indexed": true,
          "internalType": "address",
          "name": "_to",
          "type": "address"
        }
      ],
      "name": "OwnershipTransferred",
      "type": "event"
    },
    {
      "anonymous": false,
      "inputs": [
        {
          "indexed": false,
          "internalType": "address",
          "name": "",
          "type": "address"
        },
        {
          "indexed": false,
          "internalType": "uint256",
          "name": "",
          "type": "uint256"
        },
        {
          "indexed": false,
          "internalType": "uint16",
          "name": "",
          "type": "uint16"
        }
      ],
      "name": "Received",
      "type": "event"
    },
    {
      "anonymous": false,
      "inputs": [
        {
          "indexed": true,
          "internalType": "address",
          "name": "from",
          "type": "address"
        },
        {
          "indexed": true,
          "internalType": "address",
          "name": "to",
          "type": "address"
        },
        {
          "indexed": false,
          "internalType": "uint256",
          "name": "tokens",
          "type": "uint256"
        },
        {
          "indexed": false,
          "internalType": "uint16",
          "name": "_birthday",
          "type": "uint16"
        }
      ],
      "name": "Transfer",
      "type": "event"
    },
    {
      "anonymous": false,
      "inputs": [
        {
          "indexed": false,
          "internalType": "int32",
          "name": "",
          "type": "int32"
        }
      ],
      "name": "UpdateFee",
      "type": "event"
    },
    {
      "anonymous": false,
      "inputs": [
        {
          "indexed": false,
          "internalType": "int32",
          "name": "",
          "type": "int32"
        }
      ],
      "name": "UpdateIndex",
      "type": "event"
    },
    {
      "anonymous": false,
      "inputs": [
        {
          "indexed": false,
          "internalType": "address",
          "name": "",
          "type": "address"
        },
        {
          "indexed": false,
          "internalType": "uint256",
          "name": "",
          "type": "uint256"
        }
      ],
      "name": "Withdraw",
      "type": "event"
    },
    {
      "payable": true,
      "stateMutability": "payable",
      "type": "fallback"
    },
    {
      "constant": true,
      "inputs": [
        {
          "internalType": "uint16",
          "name": "",
          "type": "uint16"
        }
      ],
      "name": "_totalSupply",
      "outputs": [
        {
          "internalType": "uint256",
          "name": "",
          "type": "uint256"
        }
      ],
      "payable": false,
      "stateMutability": "view",
      "type": "function"
    },
    {
      "constant": false,
      "inputs": [],
      "name": "acceptOwnership",
      "outputs": [],
      "payable": false,
      "stateMutability": "nonpayable",
      "type": "function"
    },
    {
      "constant": true,
      "inputs": [],
      "name": "adminFee",
      "outputs": [
        {
          "internalType": "int32",
          "name": "",
          "type": "int32"
        }
      ],
      "payable": false,
      "stateMutability": "view",
      "type": "function"
    },
    {
      "constant": true,
      "inputs": [
        {
          "internalType": "address",
          "name": "tokenOwner",
          "type": "address"
        },
        {
          "internalType": "address",
          "name": "spender",
          "type": "address"
        },
        {
          "internalType": "uint16",
          "name": "_birthday",
          "type": "uint16"
        }
      ],
      "name": "allowance",
      "outputs": [
        {
          "internalType": "uint256",
          "name": "remaining",
          "type": "uint256"
        }
      ],
      "payable": false,
      "stateMutability": "view",
      "type": "function"
    },
    {
      "constant": false,
      "inputs": [
        {
          "internalType": "address",
          "name": "spender",
          "type": "address"
        },
        {
          "internalType": "uint256",
          "name": "tokens",
          "type": "uint256"
        },
        {
          "internalType": "uint16",
          "name": "_birthday",
          "type": "uint16"
        }
      ],
      "name": "approve",
      "outputs": [
        {
          "internalType": "bool",
          "name": "success",
          "type": "bool"
        }
      ],
      "payable": false,
      "stateMutability": "nonpayable",
      "type": "function"
    },
    {
      "constant": false,
      "inputs": [
        {
          "internalType": "address",
          "name": "spender",
          "type": "address"
        },
        {
          "internalType": "uint256",
          "name": "tokens",
          "type": "uint256"
        },
        {
          "internalType": "bytes",
          "name": "data",
          "type": "bytes"
        },
        {
          "internalType": "uint16",
          "name": "_birthday",
          "type": "uint16"
        }
      ],
      "name": "approveAndCall",
      "outputs": [
        {
          "internalType": "bool",
          "name": "success",
          "type": "bool"
        }
      ],
      "payable": false,
      "stateMutability": "nonpayable",
      "type": "function"
    },
    {
      "constant": true,
      "inputs": [
        {
          "internalType": "address",
          "name": "tokenOwner",
          "type": "address"
        },
        {
          "internalType": "uint16",
          "name": "_birthday",
          "type": "uint16"
        }
      ],
      "name": "balanceOf",
      "outputs": [
        {
          "internalType": "uint256",
          "name": "balance",
          "type": "uint256"
        }
      ],
      "payable": false,
      "stateMutability": "view",
      "type": "function"
    },
    {
      "constant": true,
      "inputs": [
        {
          "internalType": "uint16",
          "name": "",
          "type": "uint16"
        }
      ],
      "name": "bounds",
      "outputs": [
        {
          "internalType": "int32",
          "name": "preIndex",
          "type": "int32"
        },
        {
          "internalType": "int32",
          "name": "posIndex",
          "type": "int32"
        },
        {
          "internalType": "uint256",
          "name": "nextPreIndexUpdate",
          "type": "uint256"
        },
        {
          "internalType": "uint256",
          "name": "nextPosIndexUpdate",
          "type": "uint256"
        }
      ],
      "payable": false,
      "stateMutability": "view",
      "type": "function"
    },
    {
      "constant": true,
      "inputs": [],
      "name": "currentMonth",
      "outputs": [
        {
          "internalType": "uint16",
          "name": "",
          "type": "uint16"
        }
      ],
      "payable": false,
      "stateMutability": "view",
      "type": "function"
    },
    {
      "constant": true,
      "inputs": [],
      "name": "lastBoundEmition",
      "outputs": [
        {
          "internalType": "uint256",
          "name": "",
          "type": "uint256"
        }
      ],
      "payable": false,
      "stateMutability": "view",
      "type": "function"
    },
    {
      "constant": true,
      "inputs": [],
      "name": "name",
      "outputs": [
        {
          "internalType": "string",
          "name": "",
          "type": "string"
        }
      ],
      "payable": false,
      "stateMutability": "view",
      "type": "function"
    },
    {
      "constant": true,
      "inputs": [],
      "name": "newOwner",
      "outputs": [
        {
          "internalType": "address",
          "name": "",
          "type": "address"
        }
      ],
      "payable": false,
      "stateMutability": "view",
      "type": "function"
    },
    {
      "constant": true,
      "inputs": [],
      "name": "owner",
      "outputs": [
        {
          "internalType": "address",
          "name": "",
          "type": "address"
        }
      ],
      "payable": false,
      "stateMutability": "view",
      "type": "function"
    },
    {
      "constant": true,
      "inputs": [],
      "name": "symbol",
      "outputs": [
        {
          "internalType": "string",
          "name": "",
          "type": "string"
        }
      ],
      "payable": false,
      "stateMutability": "view",
      "type": "function"
    },
    {
      "constant": true,
      "inputs": [
        {
          "internalType": "uint16",
          "name": "_birthday",
          "type": "uint16"
        }
      ],
      "name": "totalSupply",
      "outputs": [
        {
          "internalType": "uint256",
          "name": "",
          "type": "uint256"
        }
      ],
      "payable": false,
      "stateMutability": "view",
      "type": "function"
    },
    {
      "constant": false,
      "inputs": [
        {
          "internalType": "address",
          "name": "from",
          "type": "address"
        },
        {
          "internalType": "address",
          "name": "to",
          "type": "address"
        },
        {
          "internalType": "uint256",
          "name": "tokens",
          "type": "uint256"
        },
        {
          "internalType": "uint16",
          "name": "_birthday",
          "type": "uint16"
        }
      ],
      "name": "transferFrom",
      "outputs": [
        {
          "internalType": "bool",
          "name": "success",
          "type": "bool"
        }
      ],
      "payable": false,
      "stateMutability": "nonpayable",
      "type": "function"
    },
    {
      "constant": false,
      "inputs": [
        {
          "internalType": "address",
          "name": "_newOwner",
          "type": "address"
        }
      ],
      "name": "transferOwnership",
      "outputs": [],
      "payable": false,
      "stateMutability": "nonpayable",
      "type": "function"
    },
    {
      "constant": false,
      "inputs": [
        {
          "internalType": "int32",
          "name": "_preIndex",
          "type": "int32"
        }
      ],
      "name": "createBound",
      "outputs": [],
      "payable": false,
      "stateMutability": "nonpayable",
      "type": "function"
    },
    {
      "constant": false,
      "inputs": [
        {
          "internalType": "int32",
          "name": "_newPreIndex",
          "type": "int32"
        },
        {
          "internalType": "uint16",
          "name": "_birthday",
          "type": "uint16"
        }
      ],
      "name": "updatePreIndex",
      "outputs": [],
      "payable": false,
      "stateMutability": "nonpayable",
      "type": "function"
    },
    {
      "constant": false,
      "inputs": [
        {
          "internalType": "int32",
          "name": "_newPosIndex",
          "type": "int32"
        },
        {
          "internalType": "uint16",
          "name": "_birthday",
          "type": "uint16"
        }
      ],
      "name": "updatePosIndex",
      "outputs": [],
      "payable": false,
      "stateMutability": "nonpayable",
      "type": "function"
    },
    {
      "constant": false,
      "inputs": [
        {
          "internalType": "int32",
          "name": "_newFee",
          "type": "int32"
        }
      ],
      "name": "updateFees",
      "outputs": [],
      "payable": false,
      "stateMutability": "nonpayable",
      "type": "function"
    },
    {
      "constant": true,
      "inputs": [
        {
          "internalType": "uint256",
          "name": "_tokens",
          "type": "uint256"
        },
        {
          "internalType": "uint16",
          "name": "_birthday",
          "type": "uint16"
        }
      ],
      "name": "estimateProfit",
      "outputs": [
        {
          "internalType": "uint256",
          "name": "pos",
          "type": "uint256"
        },
        {
          "internalType": "uint256",
          "name": "pre",
          "type": "uint256"
        }
      ],
      "payable": false,
      "stateMutability": "view",
      "type": "function"
    },
    {
      "constant": false,
      "inputs": [
        {
          "internalType": "uint256",
          "name": "_tokens",
          "type": "uint256"
        },
        {
          "internalType": "uint16",
          "name": "_birthday",
          "type": "uint16"
        }
      ],
      "name": "clientWithdraw",
      "outputs": [],
      "payable": false,
      "stateMutability": "nonpayable",
      "type": "function"
    },
    {
      "constant": false,
      "inputs": [
        {
          "internalType": "address",
          "name": "_to",
          "type": "address"
        },
        {
          "internalType": "uint256",
          "name": "_tokens",
          "type": "uint256"
        },
        {
          "internalType": "uint16",
          "name": "_birthday",
          "type": "uint16"
        }
      ],
      "name": "transfer",
      "outputs": [
        {
          "internalType": "bool",
          "name": "",
          "type": "bool"
        }
      ],
      "payable": false,
      "stateMutability": "nonpayable",
      "type": "function"
    },
    {
      "constant": false,
      "inputs": [
        {
          "internalType": "uint256",
          "name": "_amount",
          "type": "uint256"
        }
      ],
      "name": "ownerWithdrawEth",
      "outputs": [],
      "payable": false,
      "stateMutability": "nonpayable",
      "type": "function"
    }
  ],
  "bytecode": "0x60806040523480156200001157600080fd5b50600080546001600160a01b0319163317905560408051808201909152600580825264119256115160da1b6020909201918252620000529160029162000147565b5060408051808201909152601a8082527f4578616d706c6520466978656420537570706c7920546f6b656e0000000000006020909201918252620000999160039162000147565b506040805180820190915260038082526212519560ea1b6020909201918252620000c69160029162000147565b506040805180820190915260118082527024b73b32b9ba10233ab732102a37b5b2b760791b6020909201918252620001019160039162000147565b5060078054600060085565ffffffffffff19169055612710600b55600980546001600160a01b03191672cbe0f4904d15e227ba109221d7957642db4b18179055620001ec565b828054600181600116156101000203166002900490600052602060002090601f016020900481019282601f106200018a57805160ff1916838001178555620001ba565b82800160010185558215620001ba579182015b82811115620001ba5782518255916020019190600101906200019d565b50620001c8929150620001cc565b5090565b620001e991905b80821115620001c85760008155600101620001d3565b90565b6115ac80620001fc6000396000f3fe6080604052600436106101665760003560e01c80638da5cb5b116100d1578063b2619c591161008a578063d4ee1d9011610064578063d4ee1d90146107c7578063d639aebb146107dc578063e1cbef0c1461080a578063f2fde38b1461084d57610166565b8063b2619c5914610709578063c05175941461074c578063c866b8de1461077a57610166565b80638da5cb5b146105c257806395d89b41146105f35780639e5576e714610608578063a0be06f914610645578063a2ceb08914610673578063aa9a4665146106c157610166565b80635425bf36116101235780635425bf36146104925780635d09b33e146104c9578063717cd328146104f657806379ba5097146105545780637fd957c414610569578063862a4d471461059657610166565b80630478d90b1461026857806306fdde03146102a157806329f592821461032b578063381eadcb1461040d578063478d6b8914610437578063532649681461046b575b60075461ffff1661017657600080fd5b33600090815260056020908152604080832060075460001961ffff9182160116845290915290205434906101b0908263ffffffff61088016565b3360009081526005602090815260408083206007805460001961ffff918216810182168752928552838620969096555485160190931682526004905220546101fe908263ffffffff61088016565b6007805460001961ffff9182168101821660009081526004602090815260409182902095909555925483513381529485018690528216011682820152517f81ba9c6a422e14ec80170288f5d9b0671fde08ad257771997fcd16d914ae7f0c9181900360600190a150005b34801561027457600080fd5b5061029f6004803603604081101561028b57600080fd5b50803560030b906020013561ffff16610896565b005b3480156102ad57600080fd5b506102b6610949565b6040805160208082528351818301528351919283929083019185019080838360005b838110156102f05781810151838201526020016102d8565b50505050905090810190601f16801561031d5780820380516001836020036101000a031916815260200191505b509250505060405180910390f35b34801561033757600080fd5b506103f96004803603608081101561034e57600080fd5b6001600160a01b038235169160208101359181019060608101604082013564010000000081111561037e57600080fd5b82018360208201111561039057600080fd5b803590602001918460018302840111640100000000831117156103b257600080fd5b91908080601f0160208091040260200160405190810160405280939291908181526020018383808284376000920191909152509295505050903561ffff1691506109d79050565b604080519115158252519081900360200190f35b34801561041957600080fd5b5061029f6004803603602081101561043057600080fd5b5035610b33565b34801561044357600080fd5b5061029f6004803603604081101561045a57600080fd5b508035906020013561ffff16610c16565b34801561047757600080fd5b50610480610d2d565b60408051918252519081900360200190f35b34801561049e57600080fd5b5061029f600480360360408110156104b557600080fd5b50803560030b906020013561ffff16610d33565b3480156104d557600080fd5b5061029f600480360360208110156104ec57600080fd5b503560030b610df0565b34801561050257600080fd5b506105246004803603602081101561051957600080fd5b503561ffff16610ed1565b60408051600395860b860b815293850b90940b602084015282840191909152606082015290519081900360800190f35b34801561056057600080fd5b5061029f610f02565b34801561057557600080fd5b5061029f6004803603602081101561058c57600080fd5b503560030b610f7d565b3480156105a257600080fd5b506105ab611021565b6040805161ffff9092168252519081900360200190f35b3480156105ce57600080fd5b506105d761102b565b604080516001600160a01b039092168252519081900360200190f35b3480156105ff57600080fd5b506102b661103a565b34801561061457600080fd5b506104806004803603604081101561062b57600080fd5b5080356001600160a01b0316906020013561ffff16611092565b34801561065157600080fd5b5061065a6110c0565b60408051600392830b90920b8252519081900360200190f35b34801561067f57600080fd5b506103f96004803603608081101561069657600080fd5b5080356001600160a01b03908116916020810135909116906040810135906060013561ffff166110cf565b3480156106cd57600080fd5b50610480600480360360608110156106e457600080fd5b5080356001600160a01b03908116916020810135909116906040013561ffff16611233565b34801561071557600080fd5b506103f96004803603606081101561072c57600080fd5b5080356001600160a01b0316906020810135906040013561ffff1661126b565b34801561075857600080fd5b506104806004803603602081101561076f57600080fd5b503561ffff166112b6565b34801561078657600080fd5b506107ae6004803603604081101561079d57600080fd5b508035906020013561ffff166112c8565b6040805192835260208301919091528051918290030190f35b3480156107d357600080fd5b506105d761136c565b3480156107e857600080fd5b50610480600480360360208110156107ff57600080fd5b503561ffff1661137b565b34801561081657600080fd5b506103f96004803603606081101561082d57600080fd5b5080356001600160a01b0316906020810135906040013561ffff166113bd565b34801561085957600080fd5b5061029f6004803603602081101561087057600080fd5b50356001600160a01b0316611437565b8181018281101561089057600080fd5b92915050565b6000546001600160a01b031633146108ad57600080fd5b61ffff81166000908152600a602052604090206001015442116108cf57600080fd5b61ffff81166000908152600a60209081526040918290208054600386810b63ffffffff811663ffffffff199093169290921783556301e1338042016001909301929092558351910b815291517f49b04eadd1d86834e29954956117de764b79e3e76b568ff4ebd35db0ebcb40079281900390910190a15050565b6003805460408051602060026001851615610100026000190190941693909304601f810184900484028201840190925281815292918301828280156109cf5780601f106109a4576101008083540402835291602001916109cf565b820191906000526020600020905b8154815290600101906020018083116109b257829003601f168201915b505050505081565b3360008181526006602090815260408083206001600160a01b03891680855290835281842061ffff871680865290845282852089905582518981529384015281519394909390927f03f64f28b3a9476b8d63bd9ecee7f40f901f0eea16af02c54a8deae4437e446992908290030190a3604051638f4ffcb160e01b815233600482018181526024830187905230604484018190526080606485019081528751608486015287516001600160a01b038b1695638f4ffcb195948b94938b939192909160a490910190602085019080838360005b83811015610ac1578181015183820152602001610aa9565b50505050905090810190601f168015610aee5780820380516001836020036101000a031916815260200191505b5095505050505050600060405180830381600087803b158015610b1057600080fd5b505af1158015610b24573d6000803e3d6000fd5b50600198975050505050505050565b6000546001600160a01b03163314610b4a57600080fd5b80471015610b5757600080fd5b606460638202046000610b6a8383611470565b604051909150339083156108fc029084906000818181858888f19350505050158015610b9a573d6000803e3d6000fd5b506009546040516001600160a01b039091169082156108fc029083906000818181858888f19350505050158015610bd5573d6000803e3d6000fd5b50604080513381526020810185905281517f884edad9ce6fa2440d8a54cc123490eb96d2768479d49ff9c7366125a9424364929181900390910190a1505050565b600b5460075460009190620100009004600390810b900b8103840281610c3857fe5b33600090815260056020908152604080832061ffff881684529091529020549190049150811115610c6857600080fd5b600d818161ffff85160661ffff1660001415610ca357600080610c8b85876112c8565b91509150808211610c9c5780610c9e565b815b925050505b80471015610cb057600080fd5b610cbc60008686611485565b50604051339082156108fc029083906000818181858888f19350505050158015610cea573d6000803e3d6000fd5b50604080513381526020810183905281517f884edad9ce6fa2440d8a54cc123490eb96d2768479d49ff9c7366125a9424364929181900390910190a15050505050565b60085481565b6000546001600160a01b03163314610d4a57600080fd5b61ffff81166000908152600a60205260409020600201544211610d6c57600080fd5b61ffff81166000908152600a60209081526040918290208054600386810b63ffffffff81166401000000000267ffffffff000000001990931692909217835562278d0042016002909301929092558351910b815291517f49b04eadd1d86834e29954956117de764b79e3e76b568ff4ebd35db0ebcb40079281900390910190a15050565b6000546001600160a01b03163314610e0757600080fd5b60085462278d00014211610e1a57600080fd5b60408051608081018252600392830b815260006020808301828152426301e13380810185870190815262278d008201606087019081526007805461ffff9081168852600a9096529790952095518654935163ffffffff1990941690890b63ffffffff9081169190911767ffffffff0000000019166401000000009490990b1692909202969096178455516001808501919091559151600290930192909255825461ffff198116908316909101909116179055600855565b600a60205260009081526040902080546001820154600290920154600382810b93640100000000909304900b919084565b6001546001600160a01b03163314610f1957600080fd5b600154600080546040516001600160a01b0393841693909116917f8be0079c531659141344cd1fd0a4f28419497f9722a3daafe3b4186f6b6457e091a360018054600080546001600160a01b03199081166001600160a01b03841617909155169055565b6000546001600160a01b03163314610f9457600080fd5b600b546000190260030b8160030b12158015610fb85750600b5460030b8160030b13155b610fc157600080fd5b60078054600383810b63ffffffff8116620100000265ffffffff00001990931692909217909255604080519190920b815290517fec44d2ede75847345835e9c9c55a34db9be8025aaa380163d1ecfe3b10284b3a9181900360200190a150565b60075461ffff1681565b6000546001600160a01b031681565b6002805460408051602060018416156101000260001901909316849004601f810184900484028201840190925281815292918301828280156109cf5780601f106109a4576101008083540402835291602001916109cf565b6001600160a01b038216600090815260056020908152604080832061ffff8516845290915290205492915050565b60075462010000900460030b81565b6001600160a01b038416600090815260056020908152604080832061ffff85168452909152812054611107908463ffffffff61147016565b6001600160a01b038616600081815260056020908152604080832061ffff88168085529083528184209590955592825260068152828220338352815282822093825292909252902054611160908463ffffffff61147016565b6001600160a01b038087166000908152600660209081526040808320338452825280832061ffff881680855290835281842095909555928816825260058152828220938252929092529020546111bc908463ffffffff61088016565b6001600160a01b03808616600081815260056020908152604080832061ffff8916808552908352928190209590955584518881529081019190915283519193928916927f06c5024751126e95c0eff0ab58d76b43e50177ac5d43acfb6a690813b0cc276a92918290030190a3506001949350505050565b6001600160a01b03928316600090815260066020908152604080832094909516825292835283812061ffff9290921681529152205490565b60006001600160a01b03841630148061128b57506001600160a01b038416155b1561129f5761129a8383610c16565b6112ac565b6112aa848484611485565b505b5060019392505050565b60046020526000908152604090205481565b818060005b8361ffff168161ffff16101561131757600b5461ffff85166000908152600a60205260409020546401000000009004600390810b900b84028161130c57fe5b0492506001016112cd565b5060005b600c61ffff85160661ffff168161ffff16101561136457600b5461ffff85166000908152600a6020526040902054600390810b900b83028161135957fe5b04915060010161131b565b509250929050565b6001546001600160a01b031681565b61ffff1660009081527f05b8ccbb9d4d8fb16ea74ce3c29a41f1b461fbdaff4714a0d9a8eb05499746bc60209081526040808320546004909252909120540390565b3360008181526006602090815260408083206001600160a01b03881680855290835281842061ffff871680865290845282852088905582518881529384015281519394909390927f03f64f28b3a9476b8d63bd9ecee7f40f901f0eea16af02c54a8deae4437e446992908290030190a35060019392505050565b6000546001600160a01b0316331461144e57600080fd5b600180546001600160a01b0319166001600160a01b0392909216919091179055565b60008282111561147f57600080fd5b50900390565b33600090815260056020908152604080832061ffff851684529091528120546114b4908463ffffffff61147016565b33600090815260056020818152604080842061ffff8816808652908352818520959095556001600160a01b0389168452918152818320938352929092522054611503908463ffffffff61088016565b6001600160a01b038516600081815260056020908152604080832061ffff881680855290835292819020949094558351878152908101919091528251919233927f06c5024751126e95c0eff0ab58d76b43e50177ac5d43acfb6a690813b0cc276a9281900390910190a3506001939250505056fea265627a7a72315820190c65af974e35ab4bf51255b5a46fbab327cbae415b9a683eeb83f7ffbf0bb864736f6c63430005110032",
  "source": "// SPDX-License-Identifier: MIT\r\npragma solidity ^0.5.16;\r\n\r\nimport './ERC1155.sol';\r\n\r\n// ----------------------------------------------------------------------------\r\n// Invest Fund Token, IFT\r\n// ----------------------------------------------------------------------------\r\n\r\ncontract IFT is ERC1155 {\r\n  using SafeMath for uint;\r\n\r\n  // Variveis globais\r\n  uint16 public currentMonth;\r\n  int32 public adminFee; // Preciso 0.01%\r\n  uint public lastBoundEmition;\r\n\r\n  // Endereo dos desenvolvedores\r\n  address payable _programmerAddr;\r\n\r\n  // Estrutura dos ativos\r\n  struct Bound {\r\n    int32 preIndex; // Indexador Pr - Preciso 0.01%\r\n    int32 posIndex; // Indexador Ps - Preciso 0.01%\r\n    uint nextPreIndexUpdate; // Prxima atualizao taxa pr\r\n    uint nextPosIndexUpdate; // Prxima atualizao taxa ps\r\n  }\r\n\r\n  mapping(uint16 => Bound) public bounds; // Lista de bounds emitidas\r\n\r\n  uint private _precision; // Preciso das margens\r\n\r\n  event Received(address, uint, uint16);\r\n  event Withdraw(address, uint);\r\n  event UpdateIndex(int32);\r\n  event UpdateFee(int32);\r\n\r\n  // ------------------------------------------------------------------------\r\n  // Constructor\r\n  // ------------------------------------------------------------------------\r\n  constructor() public {\r\n    symbol = 'IFT';\r\n    name = 'Invest Fund Token';\r\n    currentMonth = 0;\r\n    lastBoundEmition = 0;\r\n    adminFee = 0;\r\n    _precision = 10 ** 4; // 1 = 0.01%\r\n    _programmerAddr = address(uint160(0x00cBE0F4904d15E227Ba109221d7957642DB4b18));\r\n  }\r\n\r\n  modifier noCreateInLastMonth {\r\n    require(now > lastBoundEmition + (30 * 24 * 60 * 60));\r\n    _;\r\n  }\r\n\r\n  function createBound(int32 _preIndex) public onlyOwner noCreateInLastMonth {\r\n    uint nextYear = now + (365 * 24 * 60 * 60); \r\n    uint nextMonth = now + (30 * 24 * 60 * 60);\r\n    bounds[currentMonth] = Bound(_preIndex, 0, nextYear, nextMonth);\r\n    currentMonth += 1;\r\n    lastBoundEmition = now;\r\n  }\r\n\r\n  // ------------------------------------------------------------------------\r\n  // Preciso 0.01%\r\n  // 1 = 1/10000\r\n  // ------------------------------------------------------------------------\r\n\r\n  function updatePreIndex(int32 _newPreIndex, uint16 _birthday) public onlyOwner {\r\n    require(now > bounds[_birthday].nextPreIndexUpdate);\r\n    bounds[_birthday].preIndex = _newPreIndex;\r\n    // Mudar o clculo para manter a preciso do ano em segundos\r\n    bounds[_birthday].nextPreIndexUpdate = now + (365 * 24 * 60 * 60);\r\n\r\n    emit UpdateIndex(_newPreIndex);\r\n  }\r\n\r\n  function updatePosIndex(int32 _newPosIndex, uint16 _birthday) public onlyOwner {\r\n    require(now > bounds[_birthday].nextPosIndexUpdate);\r\n    bounds[_birthday].posIndex = _newPosIndex;\r\n    bounds[_birthday].nextPosIndexUpdate = now + (30 * 24 * 60 * 60);\r\n\r\n    emit UpdateIndex(_newPosIndex);\r\n  }\r\n\r\n  function updateFees(int32 _newFee) public onlyOwner {\r\n    require( _newFee >= int32(_precision) * -1 && _newFee <= int32(_precision));\r\n    adminFee = _newFee;\r\n    emit UpdateFee(_newFee);\r\n  }\r\n\r\n  function estimateProfit(uint _tokens, uint16 _birthday) public view returns (uint pos, uint pre) {\r\n    pos = _tokens;\r\n    pre = _tokens;\r\n    for (uint16 m=0; m<_birthday; m++) {\r\n      pos = (pos * uint(bounds[_birthday].posIndex)) / _precision;\r\n    }\r\n    for (uint16 y=0; y<(_birthday % 12); y++) {\r\n      pre = (pre * uint(bounds[_birthday].preIndex)) / _precision;\r\n    }\r\n  }\r\n\r\n  // ------------------------------------------------------------------------\r\n  // Permite o cliente sacar ETHs proporcionalmente  quantidade de IFTs\r\n  // enviadas ao contrato referente  taxa de juros definida pelo indexador\r\n  // ------------------------------------------------------------------------\r\n\r\n  function clientWithdraw(uint _tokens, uint16 _birthday) public {\r\n    uint _amount = ((_tokens * (_precision - uint(adminFee))) / _precision); \r\n\r\n    require(balances[msg.sender][_birthday] >= _amount);\r\n    uint8 MOUNTS = 13;\r\n    uint amountEth = _amount;\r\n\r\n    if (_birthday % MOUNTS == 0) {\r\n      (uint pre, uint pos) = estimateProfit(_amount, _birthday);\r\n      amountEth = (pre > pos) ? pre : pos;\r\n    }\r\n     \r\n    require(address(this).balance >= amountEth);\r\n\r\n    // Queima os ttulos enviados para o contrato\r\n    ERC1155.transfer(address(0), _tokens, _birthday);\r\n    msg.sender.transfer(amountEth);\r\n\r\n    emit Withdraw(msg.sender, amountEth);\r\n  }\r\n\r\n  // ------------------------------------------------------------------------\r\n  // Modificao da funo de transferncia padro para a cambiao\r\n  // IFT -> ETH.\r\n  // ------------------------------------------------------------------------\r\n\r\n  function transfer(address _to, uint _tokens, uint16 _birthday) public returns (bool) {\r\n    if(_to == address(this) || _to == address(0)) clientWithdraw(_tokens, _birthday);\r\n    else ERC1155.transfer(_to, _tokens, _birthday);\r\n    return true;\r\n  }\r\n\r\n  // Permite ao proprietrio do contrato, sacar Ethereum\r\n  function ownerWithdrawEth(uint _amount) public onlyOwner {\r\n    require( address(this).balance >= _amount );\r\n    // Calcula as margens\r\n    uint ownerShare = ((_amount * 99) / 100); // 99% do montante\r\n    uint programmerShare = _amount.sub(ownerShare); // 1% do montante (resto)\r\n\r\n    msg.sender.transfer(ownerShare);\r\n    _programmerAddr.transfer(programmerShare);\r\n\r\n    emit Withdraw(msg.sender, _amount);\r\n  }\r\n\r\n  function () external payable {\r\n    require(currentMonth > 0);\r\n    uint tokens = msg.value;\r\n    balances[msg.sender][currentMonth - 1] = balances[msg.sender][currentMonth - 1].add(tokens);\r\n    _totalSupply[currentMonth - 1] = _totalSupply[currentMonth - 1].add(tokens);\r\n\r\n    emit Received(msg.sender, tokens, currentMonth - 1);\r\n  }\r\n}\r\n",
  "sourcePath": "C:/Users/LuisM/Desktop/temp/Jobs/project-tkn/contracts/IFT.sol",
  "compiler": {
    "name": "solc",
    "version": "0.5.17+commit.d19bba13.Emscripten.clang"
  },
  "schemaVersion": "3.2.3",
  "updatedAt": "2020-09-08T15:12:16.302Z",
  "networkType": "ethereum",
  "devdoc": {
    "methods": {}
  },
  "userdoc": {
    "methods": {}
  }
}