{
  "contractName": "IFT",
  "abi": [
    {
      "inputs": [],
      "payable": false,
      "stateMutability": "nonpayable",
      "type": "constructor"
    },
    {
      "anonymous": false,
      "inputs": [
        {
          "indexed": true,
          "internalType": "address",
          "name": "tokenOwner",
          "type": "address"
        },
        {
          "indexed": true,
          "internalType": "address",
          "name": "spender",
          "type": "address"
        },
        {
          "indexed": false,
          "internalType": "uint256",
          "name": "tokens",
          "type": "uint256"
        },
        {
          "indexed": false,
          "internalType": "uint16",
          "name": "_birthday",
          "type": "uint16"
        }
      ],
      "name": "Approval",
      "type": "event"
    },
    {
      "anonymous": false,
      "inputs": [
        {
          "indexed": true,
          "internalType": "address",
          "name": "_from",
          "type": "address"
        },
        {
          "indexed": true,
          "internalType": "address",
          "name": "_to",
          "type": "address"
        }
      ],
      "name": "OwnershipTransferred",
      "type": "event"
    },
    {
      "anonymous": false,
      "inputs": [
        {
          "indexed": false,
          "internalType": "address",
          "name": "",
          "type": "address"
        },
        {
          "indexed": false,
          "internalType": "uint256",
          "name": "",
          "type": "uint256"
        },
        {
          "indexed": false,
          "internalType": "uint16",
          "name": "",
          "type": "uint16"
        }
      ],
      "name": "Received",
      "type": "event"
    },
    {
      "anonymous": false,
      "inputs": [
        {
          "indexed": true,
          "internalType": "address",
          "name": "from",
          "type": "address"
        },
        {
          "indexed": true,
          "internalType": "address",
          "name": "to",
          "type": "address"
        },
        {
          "indexed": false,
          "internalType": "uint256",
          "name": "tokens",
          "type": "uint256"
        },
        {
          "indexed": false,
          "internalType": "uint16",
          "name": "_birthday",
          "type": "uint16"
        }
      ],
      "name": "Transfer",
      "type": "event"
    },
    {
      "anonymous": false,
      "inputs": [
        {
          "indexed": false,
          "internalType": "int16",
          "name": "",
          "type": "int16"
        }
      ],
      "name": "UpdateIndex",
      "type": "event"
    },
    {
      "anonymous": false,
      "inputs": [
        {
          "indexed": false,
          "internalType": "address",
          "name": "",
          "type": "address"
        },
        {
          "indexed": false,
          "internalType": "uint256",
          "name": "",
          "type": "uint256"
        }
      ],
      "name": "Withdraw",
      "type": "event"
    },
    {
      "payable": true,
      "stateMutability": "payable",
      "type": "fallback"
    },
    {
      "constant": true,
      "inputs": [],
      "name": "_currentMonth",
      "outputs": [
        {
          "internalType": "uint16",
          "name": "",
          "type": "uint16"
        }
      ],
      "payable": false,
      "stateMutability": "view",
      "type": "function"
    },
    {
      "constant": true,
      "inputs": [],
      "name": "_lastPosIndexUpdate",
      "outputs": [
        {
          "internalType": "uint256",
          "name": "",
          "type": "uint256"
        }
      ],
      "payable": false,
      "stateMutability": "view",
      "type": "function"
    },
    {
      "constant": true,
      "inputs": [],
      "name": "_lastPreIndexUpdate",
      "outputs": [
        {
          "internalType": "uint256",
          "name": "",
          "type": "uint256"
        }
      ],
      "payable": false,
      "stateMutability": "view",
      "type": "function"
    },
    {
      "constant": true,
      "inputs": [
        {
          "internalType": "uint16",
          "name": "",
          "type": "uint16"
        }
      ],
      "name": "_tokenPosIndex",
      "outputs": [
        {
          "internalType": "int16",
          "name": "",
          "type": "int16"
        }
      ],
      "payable": false,
      "stateMutability": "view",
      "type": "function"
    },
    {
      "constant": true,
      "inputs": [
        {
          "internalType": "uint16",
          "name": "",
          "type": "uint16"
        }
      ],
      "name": "_tokenPreIndex",
      "outputs": [
        {
          "internalType": "int16",
          "name": "",
          "type": "int16"
        }
      ],
      "payable": false,
      "stateMutability": "view",
      "type": "function"
    },
    {
      "constant": true,
      "inputs": [
        {
          "internalType": "uint16",
          "name": "",
          "type": "uint16"
        }
      ],
      "name": "_totalSupply",
      "outputs": [
        {
          "internalType": "uint256",
          "name": "",
          "type": "uint256"
        }
      ],
      "payable": false,
      "stateMutability": "view",
      "type": "function"
    },
    {
      "constant": false,
      "inputs": [],
      "name": "acceptOwnership",
      "outputs": [],
      "payable": false,
      "stateMutability": "nonpayable",
      "type": "function"
    },
    {
      "constant": true,
      "inputs": [
        {
          "internalType": "address",
          "name": "tokenOwner",
          "type": "address"
        },
        {
          "internalType": "address",
          "name": "spender",
          "type": "address"
        },
        {
          "internalType": "uint16",
          "name": "_birthday",
          "type": "uint16"
        }
      ],
      "name": "allowance",
      "outputs": [
        {
          "internalType": "uint256",
          "name": "remaining",
          "type": "uint256"
        }
      ],
      "payable": false,
      "stateMutability": "view",
      "type": "function"
    },
    {
      "constant": false,
      "inputs": [
        {
          "internalType": "address",
          "name": "spender",
          "type": "address"
        },
        {
          "internalType": "uint256",
          "name": "tokens",
          "type": "uint256"
        },
        {
          "internalType": "uint16",
          "name": "_birthday",
          "type": "uint16"
        }
      ],
      "name": "approve",
      "outputs": [
        {
          "internalType": "bool",
          "name": "success",
          "type": "bool"
        }
      ],
      "payable": false,
      "stateMutability": "nonpayable",
      "type": "function"
    },
    {
      "constant": false,
      "inputs": [
        {
          "internalType": "address",
          "name": "spender",
          "type": "address"
        },
        {
          "internalType": "uint256",
          "name": "tokens",
          "type": "uint256"
        },
        {
          "internalType": "bytes",
          "name": "data",
          "type": "bytes"
        },
        {
          "internalType": "uint16",
          "name": "_birthday",
          "type": "uint16"
        }
      ],
      "name": "approveAndCall",
      "outputs": [
        {
          "internalType": "bool",
          "name": "success",
          "type": "bool"
        }
      ],
      "payable": false,
      "stateMutability": "nonpayable",
      "type": "function"
    },
    {
      "constant": true,
      "inputs": [
        {
          "internalType": "address",
          "name": "tokenOwner",
          "type": "address"
        },
        {
          "internalType": "uint16",
          "name": "_birthday",
          "type": "uint16"
        }
      ],
      "name": "balanceOf",
      "outputs": [
        {
          "internalType": "uint256",
          "name": "balance",
          "type": "uint256"
        }
      ],
      "payable": false,
      "stateMutability": "view",
      "type": "function"
    },
    {
      "constant": true,
      "inputs": [],
      "name": "decimals",
      "outputs": [
        {
          "internalType": "uint8",
          "name": "",
          "type": "uint8"
        }
      ],
      "payable": false,
      "stateMutability": "view",
      "type": "function"
    },
    {
      "constant": true,
      "inputs": [],
      "name": "name",
      "outputs": [
        {
          "internalType": "string",
          "name": "",
          "type": "string"
        }
      ],
      "payable": false,
      "stateMutability": "view",
      "type": "function"
    },
    {
      "constant": true,
      "inputs": [],
      "name": "newOwner",
      "outputs": [
        {
          "internalType": "address",
          "name": "",
          "type": "address"
        }
      ],
      "payable": false,
      "stateMutability": "view",
      "type": "function"
    },
    {
      "constant": true,
      "inputs": [],
      "name": "owner",
      "outputs": [
        {
          "internalType": "address",
          "name": "",
          "type": "address"
        }
      ],
      "payable": false,
      "stateMutability": "view",
      "type": "function"
    },
    {
      "constant": true,
      "inputs": [],
      "name": "symbol",
      "outputs": [
        {
          "internalType": "string",
          "name": "",
          "type": "string"
        }
      ],
      "payable": false,
      "stateMutability": "view",
      "type": "function"
    },
    {
      "constant": true,
      "inputs": [
        {
          "internalType": "uint16",
          "name": "_birthday",
          "type": "uint16"
        }
      ],
      "name": "totalSupply",
      "outputs": [
        {
          "internalType": "uint256",
          "name": "",
          "type": "uint256"
        }
      ],
      "payable": false,
      "stateMutability": "view",
      "type": "function"
    },
    {
      "constant": false,
      "inputs": [
        {
          "internalType": "address",
          "name": "from",
          "type": "address"
        },
        {
          "internalType": "address",
          "name": "to",
          "type": "address"
        },
        {
          "internalType": "uint256",
          "name": "tokens",
          "type": "uint256"
        },
        {
          "internalType": "uint16",
          "name": "_birthday",
          "type": "uint16"
        }
      ],
      "name": "transferFrom",
      "outputs": [
        {
          "internalType": "bool",
          "name": "success",
          "type": "bool"
        }
      ],
      "payable": false,
      "stateMutability": "nonpayable",
      "type": "function"
    },
    {
      "constant": false,
      "inputs": [
        {
          "internalType": "address",
          "name": "_newOwner",
          "type": "address"
        }
      ],
      "name": "transferOwnership",
      "outputs": [],
      "payable": false,
      "stateMutability": "nonpayable",
      "type": "function"
    },
    {
      "constant": false,
      "inputs": [
        {
          "internalType": "int16",
          "name": "_newPreIndex",
          "type": "int16"
        }
      ],
      "name": "updatePreIndex",
      "outputs": [],
      "payable": false,
      "stateMutability": "nonpayable",
      "type": "function"
    },
    {
      "constant": false,
      "inputs": [
        {
          "internalType": "int16",
          "name": "_newPosIndex",
          "type": "int16"
        }
      ],
      "name": "updatePosIndex",
      "outputs": [],
      "payable": false,
      "stateMutability": "nonpayable",
      "type": "function"
    },
    {
      "constant": true,
      "inputs": [
        {
          "internalType": "uint256",
          "name": "_tokens",
          "type": "uint256"
        },
        {
          "internalType": "uint16",
          "name": "_birthday",
          "type": "uint16"
        }
      ],
      "name": "estimateProfit",
      "outputs": [
        {
          "internalType": "uint256",
          "name": "pos",
          "type": "uint256"
        },
        {
          "internalType": "uint256",
          "name": "pre",
          "type": "uint256"
        }
      ],
      "payable": false,
      "stateMutability": "view",
      "type": "function"
    },
    {
      "constant": false,
      "inputs": [
        {
          "internalType": "uint256",
          "name": "_tokens",
          "type": "uint256"
        },
        {
          "internalType": "uint16",
          "name": "_birthday",
          "type": "uint16"
        }
      ],
      "name": "clientWithdraw",
      "outputs": [
        {
          "internalType": "bool",
          "name": "success",
          "type": "bool"
        }
      ],
      "payable": false,
      "stateMutability": "nonpayable",
      "type": "function"
    },
    {
      "constant": false,
      "inputs": [
        {
          "internalType": "address",
          "name": "to",
          "type": "address"
        },
        {
          "internalType": "uint256",
          "name": "tokens",
          "type": "uint256"
        },
        {
          "internalType": "uint16",
          "name": "_birthday",
          "type": "uint16"
        }
      ],
      "name": "transfer",
      "outputs": [
        {
          "internalType": "bool",
          "name": "success",
          "type": "bool"
        }
      ],
      "payable": false,
      "stateMutability": "nonpayable",
      "type": "function"
    },
    {
      "constant": false,
      "inputs": [
        {
          "internalType": "uint256",
          "name": "_amount",
          "type": "uint256"
        }
      ],
      "name": "ownerWithdrawEth",
      "outputs": [],
      "payable": false,
      "stateMutability": "nonpayable",
      "type": "function"
    }
  ],
  "bytecode": "0x60806040523480156200001157600080fd5b50600080546001600160a01b0319163317905560408051808201909152600580825264119256115160da1b602090920191825262000052916002916200019e565b5060408051808201909152601a8082527f4578616d706c6520466978656420537570706c7920546f6b656e000000000000602090920191825262000099916003916200019e565b506004805460ff191660121790556040805180820190915260038082526212519560ea1b6020909201918252620000d3916002916200019e565b506040805180820190915260118082527024b73b32b9ba10233ab732102a37b5b2b760791b60209092019182526200010e916003916200019e565b506004805460ff19166012179055600d805461ffff1990811661271017909155600880548216905560008080527fec8156718a8372b1db44bb411437d0870f3e3790d4a08526d024ce1b0b668f6b805483169055600a6020527f13da86008ba1c6922daee3e07db95305ef49ebced9f5467a0b8613fcc6b343e38054909216909155600b819055600c5562000243565b828054600181600116156101000203166002900490600052602060002090601f016020900481019282601f10620001e157805160ff191683800117855562000211565b8280016001018555821562000211579182015b8281111562000211578251825591602001919060010190620001f4565b506200021f92915062000223565b5090565b6200024091905b808211156200021f57600081556001016200022a565b90565b6112f880620002536000396000f3fe6080604052600436106101665760003560e01c806395d89b41116100d1578063c05175941161008a578063d4ee1d9011610064578063d4ee1d9014610758578063d639aebb1461076d578063e1cbef0c1461079b578063f2fde38b146107de57610166565b8063c0517594146106b1578063c866b8de146106df578063cf9486f71461072c57610166565b806395d89b41146105595780639e5576e71461056e578063a2ceb089146105ab578063aa9a4665146105f9578063b2619c5914610641578063bad863211461068457610166565b80636241c91e116101235780636241c91e1461045c57806379ba509714610471578063818740b314610486578063834b3e20146104cd5780638da5cb5b146104fb578063930a84b61461052c57610166565b806306fdde031461023e57806311f11a4d146102c857806329f59282146102ef578063313ce567146103d1578063381eadcb146103fc578063478d6b8914610428575b33600090815260066020908152604080832060085461ffff1684529091529020543490610199908263ffffffff61081116565b3360009081526006602090815260408083206008805461ffff908116865291845282852095909555935490931682526005905220546101de908263ffffffff61081116565b6008805461ffff90811660009081526005602090815260409182902094909455915482513381529384018590521682820152517f81ba9c6a422e14ec80170288f5d9b0671fde08ad257771997fcd16d914ae7f0c9181900360600190a150005b34801561024a57600080fd5b50610253610827565b6040805160208082528351818301528351919283929083019185019080838360005b8381101561028d578181015183820152602001610275565b50505050905090810190601f1680156102ba5780820380516001836020036101000a031916815260200191505b509250505060405180910390f35b3480156102d457600080fd5b506102dd6108b5565b60408051918252519081900360200190f35b3480156102fb57600080fd5b506103bd6004803603608081101561031257600080fd5b6001600160a01b038235169160208101359181019060608101604082013564010000000081111561034257600080fd5b82018360208201111561035457600080fd5b8035906020019184600183028401116401000000008311171561037657600080fd5b91908080601f0160208091040260200160405190810160405280939291908181526020018383808284376000920191909152509295505050903561ffff1691506108bb9050565b604080519115158252519081900360200190f35b3480156103dd57600080fd5b506103e6610a17565b6040805160ff9092168252519081900360200190f35b34801561040857600080fd5b506104266004803603602081101561041f57600080fd5b5035610a20565b005b34801561043457600080fd5b506103bd6004803603604081101561044b57600080fd5b508035906020013561ffff16610ab0565b34801561046857600080fd5b506102dd610b96565b34801561047d57600080fd5b50610426610b9c565b34801561049257600080fd5b506104b4600480360360208110156104a957600080fd5b503561ffff16610c17565b60408051600192830b90920b8252519081900360200190f35b3480156104d957600080fd5b506104b4600480360360208110156104f057600080fd5b503561ffff16610c2c565b34801561050757600080fd5b50610510610c41565b604080516001600160a01b039092168252519081900360200190f35b34801561053857600080fd5b506104266004803603602081101561054f57600080fd5b503560010b610c50565b34801561056557600080fd5b50610253610cf4565b34801561057a57600080fd5b506102dd6004803603604081101561059157600080fd5b5080356001600160a01b0316906020013561ffff16610d4c565b3480156105b757600080fd5b506103bd600480360360808110156105ce57600080fd5b5080356001600160a01b03908116916020810135909116906040810135906060013561ffff16610d7a565b34801561060557600080fd5b506102dd6004803603606081101561061c57600080fd5b5080356001600160a01b03908116916020810135909116906040013561ffff16610ede565b34801561064d57600080fd5b506103bd6004803603606081101561066457600080fd5b5080356001600160a01b0316906020810135906040013561ffff16610f18565b34801561069057600080fd5b50610426600480360360208110156106a757600080fd5b503560010b610f4f565b3480156106bd57600080fd5b506102dd600480360360208110156106d457600080fd5b503561ffff16610ff9565b3480156106eb57600080fd5b506107136004803603604081101561070257600080fd5b508035906020013561ffff1661100b565b6040805192835260208301919091528051918290030190f35b34801561073857600080fd5b506107416110ae565b6040805161ffff9092168252519081900360200190f35b34801561076457600080fd5b506105106110b8565b34801561077957600080fd5b506102dd6004803603602081101561079057600080fd5b503561ffff166110c7565b3480156107a757600080fd5b506103bd600480360360608110156107be57600080fd5b5080356001600160a01b0316906020810135906040013561ffff16611109565b3480156107ea57600080fd5b506104266004803603602081101561080157600080fd5b50356001600160a01b0316611183565b8181018281101561082157600080fd5b92915050565b6003805460408051602060026001851615610100026000190190941693909304601f810184900484028201840190925281815292918301828280156108ad5780601f10610882576101008083540402835291602001916108ad565b820191906000526020600020905b81548152906001019060200180831161089057829003601f168201915b505050505081565b600c5481565b3360008181526007602090815260408083206001600160a01b03891680855290835281842061ffff871680865290845282852089905582518981529384015281519394909390927f03f64f28b3a9476b8d63bd9ecee7f40f901f0eea16af02c54a8deae4437e446992908290030190a3604051638f4ffcb160e01b815233600482018181526024830187905230604484018190526080606485019081528751608486015287516001600160a01b038b1695638f4ffcb195948b94938b939192909160a490910190602085019080838360005b838110156109a557818101518382015260200161098d565b50505050905090810190601f1680156109d25780820380516001836020036101000a031916815260200191505b5095505050505050600060405180830381600087803b1580156109f457600080fd5b505af1158015610a08573d6000803e3d6000fd5b50600198975050505050505050565b60045460ff1681565b6000546001600160a01b03163314610a3757600080fd5b80471015610a4457600080fd5b604051339082156108fc029083906000818181858888f19350505050158015610a71573d6000803e3d6000fd5b50604080513381526020810183905281517f884edad9ce6fa2440d8a54cc123490eb96d2768479d49ff9c7366125a9424364929181900390910190a150565b33600090815260066020908152604080832061ffff85168452909152812054831115610adb57600080fd5b600080610ae8858561100b565b915091506000818311610afb5781610afd565b825b905080471015610b0c57600080fd5b610b18600087876111bc565b610b2157600080fd5b604051339082156108fc029083906000818181858888f19350505050158015610b4e573d6000803e3d6000fd5b50604080513381526020810183905281517f884edad9ce6fa2440d8a54cc123490eb96d2768479d49ff9c7366125a9424364929181900390910190a150600195945050505050565b600b5481565b6001546001600160a01b03163314610bb357600080fd5b600154600080546040516001600160a01b0393841693909116917f8be0079c531659141344cd1fd0a4f28419497f9722a3daafe3b4186f6b6457e091a360018054600080546001600160a01b03199081166001600160a01b03841617909155169055565b600a6020526000908152604090205460010b81565b60096020526000908152604090205460010b81565b6000546001600160a01b031681565b6000546001600160a01b03163314610c6757600080fd5b600b546301e13380014211610c7b57600080fd5b600854600090600c9061ffff160461ffff818116600090815260096020908152604091829020805461ffff1916600188810b9586169190911790915542600b55825193900b835290519293507f9315579e8cfd2c23be23d550720ce09098d4bf23f6d0a725e4e6b6034789442892918290030190a15050565b6002805460408051602060018416156101000260001901909316849004601f810184900484028201840190925281815292918301828280156108ad5780601f10610882576101008083540402835291602001916108ad565b6001600160a01b038216600090815260066020908152604080832061ffff8516845290915290205492915050565b6001600160a01b038416600090815260066020908152604080832061ffff85168452909152812054610db2908463ffffffff6112ae16565b6001600160a01b038616600081815260066020908152604080832061ffff88168085529083528184209590955592825260078152828220338352815282822093825292909252902054610e0b908463ffffffff6112ae16565b6001600160a01b038087166000908152600760209081526040808320338452825280832061ffff88168085529083528184209590955592881682526006815282822093825292909252902054610e67908463ffffffff61081116565b6001600160a01b03808616600081815260066020908152604080832061ffff8916808552908352928190209590955584518881529081019190915283519193928916927f06c5024751126e95c0eff0ab58d76b43e50177ac5d43acfb6a690813b0cc276a92918290030190a3506001949350505050565b6001600160a01b038084166000908152600760209081526040808320938616835292815282822061ffff85168352905220545b9392505050565b60006001600160a01b038416301415610f3c57610f358383610ab0565b9050610f11565b610f478484846111bc565b949350505050565b6000546001600160a01b03163314610f6657600080fd5b600c5462278d00014211610f7957600080fd5b6008805461ffff9081166000908152600a60209081526040918290208054600187810b80871661ffff199384161790935586548087168201909616959091169490941790945542600c5581519390920b8352517f9315579e8cfd2c23be23d550720ce09098d4bf23f6d0a725e4e6b603478944289281900390910190a150565b60056020526000908152604090205481565b60085461ffff8083166000908152600a6020526040812054600d5491938493908116869003811692600192830b830190920b9116868161104757fe5b04020a915082600c600860009054906101000a900461ffff1661ffff168161106b57fe5b61ffff868116600090815260096020526040902054600d549390920493909303831692600191820b820190910b911686816110a257fe5b04020a90509250929050565b60085461ffff1681565b6001546001600160a01b031681565b61ffff1660009081527f54cdd369e4e8a8515e52ca72ec816c2101831ad1f18bf44102ed171459c9b4f860209081526040808320546005909252909120540390565b3360008181526007602090815260408083206001600160a01b03881680855290835281842061ffff871680865290845282852088905582518881529384015281519394909390927f03f64f28b3a9476b8d63bd9ecee7f40f901f0eea16af02c54a8deae4437e446992908290030190a35060019392505050565b6000546001600160a01b0316331461119a57600080fd5b600180546001600160a01b0319166001600160a01b0392909216919091179055565b33600090815260066020908152604080832061ffff851684529091528120546111eb908463ffffffff6112ae16565b33600090815260066020818152604080842061ffff8816808652908352818520959095556001600160a01b038916845291815281832093835292909252205461123a908463ffffffff61081116565b6001600160a01b038516600081815260066020908152604080832061ffff881680855290835292819020949094558351878152908101919091528251919233927f06c5024751126e95c0eff0ab58d76b43e50177ac5d43acfb6a690813b0cc276a9281900390910190a35060019392505050565b6000828211156112bd57600080fd5b5090039056fea265627a7a72315820a32ce001f49d5555a3a5d5efbfb5c91622a389f78c1e6d763b0b9552bf16d39564736f6c63430005110032",
  "source": "// SPDX-License-Identifier: MIT\r\npragma solidity ^0.5.16;\r\n\r\nimport './ERC1155.sol';\r\n\r\n// ----------------------------------------------------------------------------\r\n// Invest Fund Token, IFT\r\n// ----------------------------------------------------------------------------\r\n\r\ncontract IFT is ERC1155 {\r\n  using SafeMath for uint;\r\n\r\n  uint16 public _currentMonth; // Ms vigente\r\n  mapping(uint16 => int16) public _tokenPreIndex; // Indexador Pr\r\n  mapping(uint16 => int16) public _tokenPosIndex; // Indexador Ps\r\n  uint public _lastPreIndexUpdate; // ltima atualizao do pr-indexador\r\n  uint public _lastPosIndexUpdate; // ltima atualizao do pr-indexador\r\n\r\n  uint16 private _precision; //Preciso das margens\r\n\r\n  event Received(address, uint, uint16);\r\n  event Withdraw(address, uint);\r\n  event UpdateIndex(int16);\r\n\r\n  // ------------------------------------------------------------------------\r\n  // Constructor\r\n  // ------------------------------------------------------------------------\r\n  constructor() public {\r\n    symbol = \"IFT\";\r\n    name = \"Invest Fund Token\";\r\n    decimals = 18;\r\n    _precision = 10000; // 1 = 0.01%. \r\n\r\n    _currentMonth = 0;\r\n\r\n    _tokenPreIndex[0] = 0;\r\n    _tokenPosIndex[0] = 0;\r\n\r\n    _lastPreIndexUpdate = 0;\r\n    _lastPosIndexUpdate = 0;\r\n  }\r\n\r\n  modifier noUpdateInLastMonth{\r\n    require(now > _lastPosIndexUpdate + (30 * 24 * 60 * 60));\r\n    _;\r\n  }\r\n\r\n  modifier noUpdateInLastYear{\r\n    require(now > _lastPreIndexUpdate + (365 * 24 * 60 * 60));\r\n    _;\r\n  }\r\n\r\n  // Preciso 0.01% \r\n  function updatePreIndex(int16 _newPreIndex) public onlyOwner noUpdateInLastYear {\r\n    uint16 currentYear = _currentMonth / 12;\r\n    _tokenPreIndex[currentYear] = _newPreIndex;\r\n    _lastPreIndexUpdate = now;\r\n    emit UpdateIndex(_newPreIndex);\r\n  }\r\n\r\n  // 1 = 1/10000\r\n  function updatePosIndex(int16 _newPosIndex) public onlyOwner noUpdateInLastMonth {\r\n    _tokenPosIndex[_currentMonth] = _newPosIndex;\r\n    _currentMonth++;\r\n    _lastPosIndexUpdate = now;\r\n    emit UpdateIndex(_newPosIndex);\r\n  }\r\n\r\n  function estimateProfit(uint _tokens, uint16 _birthday) public view returns (uint pos, uint pre) {\r\n    // Preciso 0.01%\r\n    pos = ((_tokens / _precision) * uint(1 + _tokenPosIndex[_birthday])) ** (_currentMonth - _birthday);\r\n    pre = ((_tokens / _precision) * uint(1 + _tokenPreIndex[_birthday])) ** ((_currentMonth / 12) - _birthday);\r\n  }\r\n\r\n  // ------------------------------------------------------------------------\r\n  // Permite o cliente sacar ETHs proporcionalmente  quantidade de IFTs\r\n  // enviadas ao contrato referente  taxa de juros definida pelo indexador\r\n  // ------------------------------------------------------------------------\r\n  function clientWithdraw(uint _tokens, uint16 _birthday) public returns (bool success){\r\n    require(balances[msg.sender][_birthday] >= _tokens);\r\n    (uint pos, uint pre) = estimateProfit(_tokens, _birthday);\r\n    uint amountEth = (pos > pre) ? pos : pre;\r\n\r\n    require( address(this).balance >= amountEth );\r\n    require(ERC1155.transfer(address(0), _tokens, _birthday));\r\n\r\n    msg.sender.transfer(amountEth);\r\n    emit Withdraw(msg.sender, amountEth);\r\n\r\n    return true;\r\n  }\r\n\r\n  // ------------------------------------------------------------------------\r\n  // Modificao da funo de transferncia padro para a cambiao\r\n  // IFT -> ETH.\r\n  // ------------------------------------------------------------------------\r\n  function transfer(address to, uint tokens, uint16 _birthday) public returns (bool success) {\r\n    if(to == address(this)) return clientWithdraw(tokens, _birthday);\r\n    return ERC1155.transfer(to, tokens, _birthday);\r\n  }\r\n\r\n  // Permite ao proprietrio do contrato, sacar Ethereum\r\n  function ownerWithdrawEth(uint _amount) public onlyOwner {\r\n    require( address(this).balance >= _amount );\r\n    msg.sender.transfer(_amount);\r\n    emit Withdraw(msg.sender, _amount);\r\n  }\r\n\r\n  function () external payable {\r\n    uint tokens = msg.value;\r\n    balances[msg.sender][_currentMonth] = balances[msg.sender][_currentMonth].add(tokens);\r\n    _totalSupply[_currentMonth] = _totalSupply[_currentMonth].add(tokens);\r\n\r\n    emit Received(msg.sender, tokens, _currentMonth);\r\n  }\r\n}",
  "sourcePath": "C:/Users/LuisM/Desktop/temp/Jobs/project-tkn/contracts/IFT.sol",
  "compiler": {
    "name": "solc",
    "version": "0.5.17+commit.d19bba13.Emscripten.clang"
  },
  "schemaVersion": "3.2.3",
  "updatedAt": "2020-08-21T19:29:23.254Z",
  "devdoc": {
    "methods": {}
  },
  "userdoc": {
    "methods": {}
  }
}