{
  "contractName": "Owned",
  "abi": [
    {
      "inputs": [],
      "payable": false,
      "stateMutability": "nonpayable",
      "type": "constructor"
    },
    {
      "anonymous": false,
      "inputs": [
        {
          "indexed": true,
          "internalType": "address",
          "name": "_from",
          "type": "address"
        },
        {
          "indexed": true,
          "internalType": "address",
          "name": "_to",
          "type": "address"
        }
      ],
      "name": "OwnershipTransferred",
      "type": "event"
    },
    {
      "constant": true,
      "inputs": [],
      "name": "newOwner",
      "outputs": [
        {
          "internalType": "address",
          "name": "",
          "type": "address"
        }
      ],
      "payable": false,
      "stateMutability": "view",
      "type": "function"
    },
    {
      "constant": true,
      "inputs": [],
      "name": "owner",
      "outputs": [
        {
          "internalType": "address",
          "name": "",
          "type": "address"
        }
      ],
      "payable": false,
      "stateMutability": "view",
      "type": "function"
    },
    {
      "constant": false,
      "inputs": [
        {
          "internalType": "address",
          "name": "_newOwner",
          "type": "address"
        }
      ],
      "name": "transferOwnership",
      "outputs": [],
      "payable": false,
      "stateMutability": "nonpayable",
      "type": "function"
    },
    {
      "constant": false,
      "inputs": [],
      "name": "acceptOwnership",
      "outputs": [],
      "payable": false,
      "stateMutability": "nonpayable",
      "type": "function"
    }
  ],
  "bytecode": "0x608060405234801561001057600080fd5b50600080546001600160a01b031916331790556101b4806100326000396000f3fe608060405234801561001057600080fd5b506004361061004c5760003560e01c806379ba5097146100515780638da5cb5b1461005b578063d4ee1d901461007f578063f2fde38b14610087575b600080fd5b6100596100ad565b005b610063610128565b604080516001600160a01b039092168252519081900360200190f35b610063610137565b6100596004803603602081101561009d57600080fd5b50356001600160a01b0316610146565b6001546001600160a01b031633146100c457600080fd5b600154600080546040516001600160a01b0393841693909116917f8be0079c531659141344cd1fd0a4f28419497f9722a3daafe3b4186f6b6457e091a360018054600080546001600160a01b03199081166001600160a01b03841617909155169055565b6000546001600160a01b031681565b6001546001600160a01b031681565b6000546001600160a01b0316331461015d57600080fd5b600180546001600160a01b0319166001600160a01b039290921691909117905556fea265627a7a72315820a114f4a3b93a981af38b1e9cd54ad8131bd7adf50b13c1d57b80fe227e0e1ae564736f6c63430005110032",
  "source": "// SPDX-License-Identifier: MIT\r\npragma solidity ^0.5.16;\r\n\r\n// ----------------------------------------------------------------------------\r\n// Owned contract\r\n// ----------------------------------------------------------------------------\r\ncontract Owned {\r\n  address public owner;\r\n  address public newOwner;\r\n\r\n  event OwnershipTransferred(address indexed _from, address indexed _to);\r\n\r\n  constructor() public {\r\n      owner = msg.sender;\r\n  }\r\n\r\n  modifier onlyOwner {\r\n      require(msg.sender == owner);\r\n      _;\r\n  }\r\n\r\n  function transferOwnership(address _newOwner) public onlyOwner {\r\n      newOwner = _newOwner;\r\n  }\r\n  function acceptOwnership() public {\r\n      require(msg.sender == newOwner);\r\n      emit OwnershipTransferred(owner, newOwner);\r\n      owner = newOwner;\r\n      newOwner = address(0);\r\n  }\r\n}",
  "sourcePath": "C:\\Users\\LuisM\\Desktop\\temp\\Jobs\\project-tkn\\contracts\\Owned.sol",
  "compiler": {
    "name": "solc",
    "version": "0.5.17+commit.d19bba13.Emscripten.clang"
  },
  "schemaVersion": "3.2.3",
  "updatedAt": "2020-09-18T18:49:12.312Z",
  "devdoc": {
    "methods": {}
  },
  "userdoc": {
    "methods": {}
  }
}